:02000002D0002C
:1040000000400D007C6B0D00000006000C00050157
:084010000401E80500000000B6
:04401800AC660D0085
:1040200009480A49884208B505D0094A824202D0A7
:10403000121A02F0F7FA0748074A0021121A02F092
:10404000FCFA014808BD00BF50E30320E46A0D00FC
:10405000C0E30320C0E30320F0E7032070B501F0C4
:104060009DFB074C074BE41AA40800251E46A542F9
:1040700004D056F8253098470135F8E770BD00BFE9
:10408000DC6A0D00A06A0D0000F07CBA08B500F0F3
:104090001DFBBDE8084001F043BB00F049BD00F046
:1040A00047BD0078B0FA80F04009704701230370E3
:1040B00070477047000000002DE9F84F8B8807EE2D
:1040C000903AF8EEE77AF2EE046A87EEA67A1446A2
:1040D0000D460E264FF0010ADFED3F6A82ED017AB0
:1040E000D1ED037AF8EE677A87EEA67ADFED3B6AC8
:1040F00082ED057ACB8807EE903AF8EEE77A87EE04
:10410000A67A82ED027A0B899FED357A07EE903A16
:10411000F8EEE77AC7EE876A16EE900A01F0D8FE4D
:104120002BA3D3E9002301F027FF02F01DFAE06082
:10413000B5F90AB04FEADB7001F0B8FE02F014FAEC
:1041400080F000470AFA06F000EA0B00304101F067
:10415000ADFE8046C6F10F000AFA00F0894601F074
:10416000A5FE02460B464046494602F02FF880461F
:104170003846894601F0ACFE02460B4640464946A9
:1041800001F048FD02F0F0F9013E032E0746D9D1B7
:104190002061D5ED047AB8EE677ADFED127AC7EECA
:1041A000276AC4ED066A95ED057AB8EE477AC7EE40
:1041B000276AC4ED076A95ED067AB8EE477AC7EE2E
:1041C000276AC4ED086ABDE8F88F00BFAFF300802E
:1041D0006666666666660A4000401C4600007A44D1
:1041E00000C07F440000C84270B553181578987815
:1041F000144600230131A61AB14204DB14F8016B06
:1042000033449BB2F7E7062DDBB204D0512D14BF27
:104210000122022200E0002298420CBF1046052035
:1042200070BD2DE9F347DDF82C800A9F03F10209E8
:10423000C14506461C465CDAA5238DF800300823EC
:104240008DF8013041238DF802304E238DF8053072
:10425000E5B200238DF804208DF803108DF8065088
:104260008DF807301A461DF802100132072A0B4458
:10427000F9D18DF8073001F037FB317800F041FDBE
:104280004FF0000A01F030FB03681DF80A109B682C
:104290000AF1010A9847BAF1080FF3D101F024FBA3
:1042A00000F037FD642000F04BFC01F01DFBEA1C20
:1042B000D2B2317800F022FD01F016FB03681B69D1
:1042C0009847E31C984216D13D46EB1B994507DB06
:1042D00001F00AFB03685B69984705F8010BF4E7F6
:1042E00043463A462146304602B0BDE8F047FFF764
:1042F0007BBF042000E0032002B0BDE8F0872DE979
:10430000F04F06468DB015460C46002944D02323B5
:10431000019303AB009302221C230021FFF781FFCE
:10432000002840F0C3809DF80F209DF80E3043EA2E
:10433000022323809DF811209DF8103043EA0223C8
:1043400063809DF813209DF8123043EA0223A38076
:104350009DF815209DF8143043EA0223E3809DF870
:1043600017209DF8163043EA022323819DF9192076
:104370009DF8183003EB02236381DDF81A30E36007
:10438000DDF81E302361DDF822306361DDF8263070
:10439000A361642000F0D4FB002D00F0868013237D
:1043A00003AC0193009410231E2200213046FFF736
:1043B00038FF00287AD17068421C10D1DDF80E2039
:1043C000DDF812305B084FEA3202C5E90023DDF860
:1043D0001620DDF81A305B084FEA32021EE0012297
:1043E00002FA00F0DDF80E30DDF812104FEAE07945
:1043F00003FB09F700FB0177A3FB00013944C5E982
:1044000000017168DDF81630DDF81A708A40D117A6
:10441000594302FB0711A3FB02230B44C5E9022306
:10442000642000F08DFB13230193009410232E22AF
:1044300000213046FFF7F5FE002837D171684B1C8C
:1044400010D1DDF80E20DDF812305B084FEA3202A1
:10445000C5E90423DDF81620DDF81A305B084FEAC1
:1044600032021FE0012202FA01F8DDF80E30DDF819
:1044700012404FEAE87B03FB0BF108FB0411A3FB9E
:1044800008898944C5E904897468DDF81630DDF8C7
:104490001A10A240D71703FB07F402FB0141A3FB4C
:1044A00002230B44C5E9062300E028460DB0BDE811
:1044B000F08F1FB50523019302AB0C460093DC225D
:1044C00002230021FFF7ADFE28B99DF80A30003322
:1044D00018BF0123237004B010BD1FB5052301933D
:1044E00002AB0C4600939E2202230021FFF799FEA7
:1044F00010B9BDF80A30236004B010BD13B50170C7
:10450000044601F0F1F90D4900F0C0FB01F0ECF9AF
:1045100000F0C0FB02A9002301F8053D2046FFF78B
:10452000C8FF48B99DF8033033B101A92046FFF711
:10453000D4FF019B023B636002B010BDA086010066
:1045400000F042B910B50C4B0C4C1888217801F0E2
:1045500098F90B490B685A1C032392FBF3F303EB06
:104560004303D31A022B0B6001BF2368B3FA83F312
:104570005B09236010BD00BF50E3032054E3032018
:10458000C4E3032007B5124B0121188801F068F934
:10459000002200924FF0FF3310460E4900F0C2FB9C
:1045A00001F03CF84FF4165101F02CF801F036F808
:1045B000094900F0F8FD01F031F8084900F0F3FD79
:1045C0000748742103B05DF804EBFFF797BF00BF05
:1045D00050E3032045450D00C0660D00F3660D0055
:1045E000C8E3032010B5044601F018F82F4900F085
:1045F000CAFD01F013F894ED010A042100F0C7FE92
:1046000001F00CF82A4900F0BEFD01F007F894ED26
:10461000050A042100F0BBFE01F000F8254900F076
:10462000B2FD00F0FBFF94ED020A042100F0AFFEA2
:1046300000F0F4FF204900F09FFD00F0EFFF94ED43
:10464000030A042100F0A3FE00F0E8FF1B4900F07C
:104650009AFD00F0E3FF94ED040A042100F097FEB8
:1046600000F0DCFF164900F08EFD00F0D7FF94ED5E
:10467000060A042100F08BFE00F0D0FF114900F083
:1046800082FD00F0CBFF94ED070A042100F07FFECD
:1046900000F0C4FF0C4900F076FD00F0BFFF94ED80
:1046A000080A0421BDE8104000F071BE50670D00FB
:1046B00026670D0031670D0043670D005B670D0035
:1046C0006B670D007B670D008D670D0030B591B0F5
:1046D000002269461848FFF712FE044678B900F038
:1046E0009DFF03681549DB680222984707AA6946BF
:1046F0001148FFF7E1FC07A8FFF774FF16E000F090
:104700008DFF0F4900F038FD00F088FF002C0546B2
:1047100004DA2D2100F034FD614200E021460A2236
:10472000284600F04AFD284600F031FD4FF47A702B
:1047300000F006FA11B030BDC8E303209F670D00FA
:10474000A2670D0008B500F03FF80248BDE8084038
:10475000FFF7AFBCC8E3032008B5024B1B689B689A
:10476000019308BD4802030008B5024B1B681B6992
:10477000019308BD4802030008B5024B1B685B6942
:10478000019308BD4802030008B5024B1B685B6C2F
:10479000019308BD4802030008B5024B1B689B6CDF
:1047A000019308BD4802030008B5024B1B685B6813
:1047B000019308BD1802030008B5024B1B685B6932
:1047C000019308BD1802030008B5024B1B681B6863
:1047D000019308BD2C02030008B5024B1B689B68BF
:1047E000019308BD2C02030008B5024B1B68DB686F
:1047F000019308BD2C02030008B5024B1B681B691E
:10480000019308BD2C02030008B5024B1B689B698D
:10481000019308BD2C02030008B5024B1B68DB693D
:10482000019308BD2C02030008B5024B1B681B68EE
:10483000019308BD2802030008B5024B1B68DB6822
:10484000019308BD2802030008B5024B1B689B6951
:10485000019308BD2802030008B5024B1B68DB6901
:10486000019308BD2802030008B5024B1B681B6AB0
:10487000019308BD2802030008B5024B1B685B6A60
:10488000019308BD2802030008B5024B1B689B6A10
:10489000019308BD2802030008B5024B1B68DB6AC0
:1048A000019308BD2802030008B5024B1B681B6B6F
:1048B000019308BD2802030008B5024B1B685B6B1F
:1048C000019308BD2802030008B5024B1B681B6C4E
:1048D000019308BD2802030008B5024B1B681B6D3D
:1048E000019308BD2802030008B5024B1B685B69F1
:1048F000019308BD6402030008B5024B1B689B6866
:10490000019308BD6802030008B5024B1B68DB6811
:10491000019308BD6802030008B5024B1B68DB6900
:10492000019308BD3002030008B5024B1B681B6AE7
:10493000019308BD3002030008B5024B1B681B68D9
:10494000019308BD3C02030008B5024B1B68DB68FD
:10495000019308BD3C02030008B5024B1B681B69AC
:10496000019308BD3C02030008B5024B1B685B695C
:10497000019308BD3C02030008B5024B1B689B690C
:10498000019308BD3C02030008B5024B1B68DB69BC
:10499000019308BD3C02030008B5024B1B681B6A6B
:1049A000019308BD3C02030008B5024B1B689B6ADB
:1049B000019308BD3C02030008B5024B1B681B684D
:1049C000019308BD4C02030008B5024B1B685B68ED
:1049D000019308BD4C02030008B5024B1B681B691C
:1049E000019308BD4C02030008B5024B1B685B69CC
:1049F000019308BD4C02030008B5024B1B689B697C
:104A0000019308BD4C02030008B5024B1B68DB692B
:104A1000019308BD4C02030008B5024B1B681B6ADA
:104A2000019308BD4C02030008B5024B1B685B688C
:104A3000019308BD2002030008B5024B1B685B69A7
:104A4000019308BD2002030008B5034B1B68D3F88F
:104A50008830019308BD00002002030008B5034B15
:104A60001B68D3F89430019308BD000020020300B6
:104A700008B5024B1B68DB6B019308BD44020300C1
:104A800008B5024B1B685B68019308BD4002030038
:104A900008B5024B1B689B68019308BD40020300E8
:104AA00008B5024B1B68DB68019308BD4002030098
:104AB00008B5024B1B681B69019308BD4002030047
:104AC00008B5024B1B685B69019308BD40020300F7
:104AD00008B5024B1B689B69019308BD40020300A7
:104AE00008B5024B1B68DB69019308BD4002030057
:104AF00008B5024B1B681B6A019308BD4002030006
:104B000008B5024B1B681B6B019308BD40020300F4
:104B100008B5024B1B685B6B019308BD40020300A4
:104B200008B5024B1B681B68019308BD1C020300FB
:104B300008B5024B1B685B68019308BD1C020300AB
:104B40000021FFF779BF10B50446006808B1FFF7F0
:104B500023FE204610BD000010B5064C0023204661
:104B60002360FFF711FE2046034A0449BDE81040C8
:104B700000F0E0BED0E30320C0E30320474B0D006C
:104B800010B58368044613B10322014698472046B6
:104B900010BD002211464068FFF7AABF002211464F
:104BA0004068FFF7B5BF00224068FFF7A9BF0022A9
:104BB00081F001014068FFF793BF00231A461946B0
:104BC0004068FFF785BF00231A4619464068FFF783
:104BD00077BF002211464068FFF76ABF00221146E6
:104BE0004068FFF755BF002202214068FFF758BF19
:104BF00000231A464068FFF743BF0000024B032220
:104C00005A60024A1A607047D4E30320BC670D0063
:104C10007047F8B5064615460C468F18BC4206D0BC
:104C2000336814F8011B9B6830469847F6E728461E
:104C3000F8BD0022007CFFF717BE0021007CFFF7C3
:104C40001BBE0021007CFFF71FBE0021007CFFF788
:104C500023BE0021007CFFF727BE10B514210446B7
:104C600000F06DFE204610BD10B5044600236360C1
:104C70004FF47A73A360044B2174084623601146F5
:104C8000FFF722FE204610BDF0670D000022007CD9
:104C9000FFF7CABD00231A461946007CFFF7CCBDBA
:104CA00070B50C4686B0142506462A46002101A898
:104CB00001F0C3FC23788DF8083063680393E36840
:104CC00004930022237A307CADF8045001A90593A7
:104CD000FFF702FE06B070BD1FB500338DF800105F
:104CE0004FF06401039118BF0123694601928DF8CA
:104CF0000830FFF7D5FF05B05DF804FB0123FFF78F
:104D0000EBBF0022007CFFF79FBD0022007CFFF775
:104D1000A3BD0121FFF7F9BF0021007CFFF7CCBD47
:104D200000470000F0B585B01C460E461746054604
:104D3000FFF772FD002084424FF0040303908DF8CA
:104D40000C30A5BF9DF828308DF80E30034603AB1C
:104D5000009332463B460649A8BF8DF80D402846D1
:104D6000FFF752FDB0FA80F0400905B0F0BD00BF7A
:104D7000214D0D00704710B51821044600F0DFFDED
:104D8000204610BDF0B5037D062B8DB00E4600F118
:104D900004074FF0000402D000F1080518E00CAD44
:104DA000394605F8304D2F232A460A20FFF79CFD8F
:104DB000284601F073FC33680246DB68294630461A
:104DC00098470FE024B12E21304600F0D9F9044471
:104DD00015F8011D0A22304600F0EFF9BD420444E7
:104DE000F0D120460DB0F0BD10B5054B04461122A0
:104DF00040F8043B002101F020FC204610BD00BF1C
:104E000018680D000346074A10B543F8042B01F15A
:104E1000100251F8044B43F8044B9142F9D10A783F
:104E20001A7010BD18680D0010B59DF8084044EACE
:104E3000032343EA024242EA01610423416003750D
:104E400010BD37B50D788B784A78C978009129461E
:104E5000FFF7EAFF03B030BD014B024A1A6070470A
:104E6000DCE3032097680D00002211464068FFF73D
:104E70003FBE002211464068FFF74ABE002240684C
:104E8000FFF73EBE002281F001014068FFF728BE17
:104E900000231A4601214068FFF71ABE00231A4674
:104EA00019464068FFF70CBE002211464068FFF724
:104EB000FFBD002211464068FFF7EABD0022022133
:104EC0004068FFF7EDBD00231A464068FFF7D8BDE4
:104ED00038B5054688B104684CB1A3681BB10322FC
:104EE0002146204698471021204600F028FD2846FC
:104EF0001421BDE8384000F022BD38BD10B1036870
:104F00005B681847704710B503680446BBB1586822
:104F1000FFF722FC78B923685A7C12B95868FFF76A
:104F200023FC23685868FFF727FC206800232360D0
:104F300028B1FFF7CDFF206808B1FFF7C9FF204671
:104F400010BD38B50446D0F8C40108B1FFF7A7F882
:104F5000D4F8C00108B1FFF71FFCD4F8BC5135B13B
:104F60002846FFF7D0FF0421284600F0E8FC20681F
:104F700008B1FFF7C3FF204638BD000010B5044B51
:104F8000044640F8083BFFF7DCFF204610BD00BF99
:104F90000C690D0038B50E4C0E4B23600025022322
:104FA00004F5E4706360A560C4F8C451C4F8C85146
:104FB000FFF7EAFB084BC4F8CC5184F8D0512360CA
:104FC0002046064A0649BDE8384000F0B3BC00BFA1
:104FD000E0E3032040690D000C690D00C0E30320ED
:104FE0007D4F0D0000231A464068FFF749BD00229F
:104FF00002214068FFF754BD002211464068FFF7C8
:1050000047BD002211464068FFF752BD00231A46F3
:1050100019464068FFF754BD00231A4619464068F8
:10502000FFF756BD002281F001014068FFF758BD2F
:1050300000224068FFF764BD002211464068FFF778
:1050400067BD002211464068FFF752BD2DE9F043CD
:10505000002495B016460D460746FFF7C5FE2146CB
:1050600020220CA8009401F0E8FA40230C9321467A
:105070006B460CAA3046FFF747FC0446002844D193
:10508000024601216868FFF713FD0221804622468F
:105090006868FFF70DFD009E81462146002E34D042
:1050A000002932D17368022B02D00A2B09D02AE0E2
:1050B000B8F1000F27D0716938460431FFF7C1FEFF
:1050C00020E0B9F1000F1ED07469112201A801F08F
:1050D000B4FA06238DF8143001AD04F10803183436
:1050E000186859682A4603C20833A3421546F7D107
:1050F00001A906A807ADFFF785FE0FCD3C1D0FC423
:105100002B6823700121F669C8E70098FFF7F4FBCC
:10511000384615B0BDE8F083024B034A1A600022FE
:105120005A607047B4E5032040690D00F8B50646A3
:105130000D468F180024BD420CD0336815F8011BB2
:105140009B6830469847002801DB0444F3E7002CB5
:1051500008BF04462046F8BD70B505460C46084613
:1051600049B101F09BFA2B68024621462846DB68CC
:10517000BDE87040184770BD08B5FFF7EDFF08BDEA
:1051800003689B68184708B5FFF7E6FF08BD38B508
:105190000D210546FFF7F4FF0A2104462846FFF7D4
:1051A000EFFF204438BD38B50546FFF7D5FF04466C
:1051B0002846FFF7ECFF204438BD30B58BB00B46D6
:1051C00000218DF82410012A98BF0A220DF1230432
:1051D000B3FBF2F505FB123303F0FF03092B94BF79
:1051E00030333733DBB2214604F801392B46002D2A
:1051F000EED1FFF7B1FF0BB030BD00002DE9F04755
:1052000057EC106B82460D4610EE102A3B4610EE0E
:10521000100A394601F04AF908B14E4912E027F068
:1052200000494FF0FF324C4B3046494601F03EF901
:1052300068B94FF0FF32484B3046494601F018F943
:1052400028B946495046FFF787FFBDE8F0874FF081
:105250006042434B3046394601F01EF908B14149DE
:10526000F0E74FF06042404B3046394601F0F6F827
:105270000028F4D1002200233046394601F0EEF830
:1052800040B12D215046FFF77BFF07F10043044654
:105290001F4600E0044635494FF0000800205FFA41
:1052A00088F39D4206D90022314B00F08FFF08F1B0
:1052B0000108F4E732463B4600F0ACFC0F460646D8
:1052C00001F032F90A22014680465046FFF775FF89
:1052D0000444E5B3404600F0D9FD02460B46304693
:1052E000394600F095FC06460F4650462149FFF727
:1052F00033FF044400221E4B3046394600F03CFE8A
:1053000006460F4601F0E8F8B0F1000907DA2D2152
:105310005046FFF735FFC9F10001804602E04946DB
:105320004FF000080A225046FFF747FF404404446C
:10533000484600F0BBFD02460B463046394600F0B9
:1053400067FC013D15F0FF0506460F46D2D1204609
:10535000BDE8F0876C690D00FFFFEF7F76690D00F7
:10536000FFFFEF4170690D00FFFFEFC10000E03F5C
:105370000000244074690D0038B5C9B20546FFF736
:105380003DFF04462846FFF702FF204438BD38B5EC
:10539000044610EE100A0D4600F09AFD41EC100B89
:1053A00029462046BDE83840FFF7E6BF10B5044661
:1053B000FFF7E6FB204610BD0348044A04490023DA
:1053C000836000F0B7BA00BFBCE50320C0E3032050
:1053D000AD530D0010B5044601700846FFF79CFA66
:1053E00000236360204610BD0078FFF79DBA10B51A
:1053F0000446006818B1FFF79BFB0023236010BD33
:1054000010B50446FFF7F3FF204610BD10B5094C58
:1054100000204FF6FF732060A080A071208163817F
:10542000FFF702FB2046044A0449BDE8104000F0A3
:1054300081BA00BFCCE50320C0E3032001540D0076
:10544000024B1A68024B1A60704700BF58E30320F2
:10545000D8E5032070474174704708B5007CFFF71A
:10546000A3FA20EAE07008BD08B5007CFFF774FAE3
:1054700020EAE07008BD08B5007CFFF77DFA30EA4D
:10548000200028BF4FF0FF3008BD08B5007CFFF7B3
:105490006BFA30EA200028BF4FF0FF3008BD007CD7
:1054A000FFF772BA10B51421044600F048FA2046FE
:1054B00010BD70B5457C04460E4625B9007CFFF74B
:1054C00073FA002805DD3146207CBDE87040FFF707
:1054D0003BBA284670BD000010B504460846114688
:1054E000002262604FF47A72A260054A22600122B3
:1054F000207462741A46FFF71FFA204610BD00BFE1
:10550000AC690D00007CFFF747BA000038B50C4DC0
:10551000296811F0010411D12846FEF7C2FD68B1D7
:10552000084A094B09482146FFF7D6FF2846FEF7EF
:10553000BDFD074A0749054800F0FCF9034838BD9E
:1055400074E6032078E60320F0E50320DCE5032081
:10555000C0E3032055540D0041747047704708B5EF
:105560000021007CFFF748FA30EA200028BF4FF006
:10557000FF3008BD08B50121007CFFF73DFA30EA95
:10558000200028BF4FF0FF3008BD08B5007CFFF7B2
:105590002BFA20EAE07008BD08B5007CFFF71CFA82
:1055A00020EAE07008BD007CFFF736BA10B5142180
:1055B000044600F0C4F9204610BD38B50446007C0E
:1055C0000D46FFF711FA002801DC607C28B129465E
:1055D000207CFFF719FA20EAE07038BD10B50446C8
:1055E000002363604FF47A73A360054B23600123AB
:1055F0000846217463741146FFF7DEF9204610BD9A
:10560000DC690D000022007CFFF7DEB910B5142222
:105610000446002101F011F8204610BD30B50E4DB2
:1056200087B001A8FFF7F2FF296811F0010410D13B
:105630002846FEF736FD60B101AA21460748FFF76C
:10564000CDFF2846FEF732FD054A0649034800F023
:1056500071F9024807B030BDFCE6032000E70320E3
:10566000C0E303205D550D00002211464068FFF79E
:105670001FBA002211464068FFF73ABA00221146CD
:105680004068FFF745BA00224068FFF739BA0022A8
:1056900081F001014068FFF723BA00231A4619463A
:1056A0004068FFF715BA00231A4619464068FFF70D
:1056B00007BA002211464068FFF7EAB9002202212A
:1056C0004068FFF7EDB900231A464068FFF7D8B9E4
:1056D000024B04225A60024A1A60704714E7032002
:1056E0000C6A0D0008B50C4B33B1FFF797FF036848
:1056F0001B699847002809DC084B63B1FFF706FFD8
:1057000003681B699847002803DC08BDAFF30080DD
:10571000F2E7AFF3008008BD0000000000000000C9
:1057200008B5FFF7DFFFFFF747F8014B186008BD2A
:1057300030E703200248034A0349121A00F072BFFF
:1057400000F4032004F40320E06A0D0007B50023F1
:1057500000931A466FF07701FFF780F903B05DF808
:1057600004FB000007B543880A2B08D0502B09D151
:10577000094B1B683BB103B05DF804EB1847FFF71A
:10578000E5FF06E0002300931A466FF07701FFF76C
:1057900065F903B05DF804FB1CE7032038B5104C35
:1057A000104D2368AB42104B0CBF012200221A702F
:1057B00002D0FFF7BFFF2560FEF7F6FF044600F0BA
:1057C00045FF0A4B13B12046AFF300800021074884
:1057D000FFF74EF900210648BDE83840FFF734B91D
:1057E00000F403201E1C279A20E70320000000007D
:1057F00065570D0070B5184E316811F0010504466B
:105800000AD13046FEF74DFC30B129461348FFF768
:10581000E1FD3046FEF74AFC1048FFF7E5FD28B1F0
:10582000A4F10B03022B01D8002070BD00F05CF83E
:10583000FFF772FA08B1012CF6D9FFF767FEFFF700
:1058400061FE18B1A4F10903012BEDD9232C8CBF03
:105850000020012070BD00BF24E7032028E70320BB
:10586000232838B504460D460AD8FF2908D0FFF78B
:10587000C1FF28B129462046BDE83840FEF7ACBF3D
:1058800038BD38B504460D46FEF7AEFFFF2810D0F0
:10589000062804D84D2323FA00F0C30709D4204674
:1058A000FFF7A8FF28B129462046BDE83840FEF79B
:1058B000A3BF38BD70B5044614252A46094E002101
:1058C00000F0BBFE258020253146A56025612846D5
:1058D00000F04FF831466060284600F04AF8E0607A
:1058E000204670BD386A0D0030B50E4D296811F0A4
:1058F000010487B013D12846FEF7D3FB78B101A885
:10590000FFF7D8FF01AA21460748FFF7ADF928465F
:10591000FEF7CCFB054A0649034800F00BF80248A5
:1059200007B030BD34E7032038E70320C0E303208D
:10593000114C0D000B460146184600F065BEFEF7FF
:10594000ACBB0000024B1868BFF35F8F704700BF0D
:105950004CE7032010B5002814BF0446012420465C
:10596000FFF7DEF820B9FFF7EDFF08B18047F6E753
:1059700010BDFFF7EFBF0000244B1A68D0075CBFD3
:1059800001221A60224B1A68D1075CBF01221A60FB
:10599000204B1A68D2075CBF01221A601E4B1A689E
:1059A000D0075CBF01221A601C4B1A68D1075CBF8C
:1059B00001221A601A4B1A68D2075CBF01221A60D2
:1059C000184B1A68D0075CBF01221A60164B1A6880
:1059D000D1075CBF01221A60144B1A68D2075CBF62
:1059E00001221A60124B1A68D0075CBF01221A60AC
:1059F000104B1A68D1075CBF01221A600E4B1A685F
:105A0000D2075CBF01221A60704700BF7CE7032009
:105A100078E7032074E7032070E703206CE7032096
:105A200068E7032064E7032060E703205CE70320C6
:105A300058E7032054E7032050E70320184B1A6867
:105A4000D1075CBF01221A60164B1A68D2075CBFEF
:105A500001221A60144B1A68D0075CBF01221A6039
:105A6000124B1A68D1075CBF01221A60104B1A68EA
:105A7000D2075CBF01221A600E4B1A68D0075CBFC8
:105A800001221A600C4B1A68D1075CBF01221A6010
:105A90000A4B1A68D2075CBF01221A60704700BF28
:105AA0009CE7032098E7032094E7032090E7032076
:105AB0008CE7032088E7032084E7032080E70320A6
:105AC000184B1A68D1075CBF01221A60164B1A687E
:105AD000D2075CBF01221A60144B1A68D0075CBF62
:105AE00001221A60124B1A68D1075CBF01221A60AA
:105AF000104B1A68D2075CBF01221A600E4B1A685D
:105B0000D0075CBF01221A600C4B1A68D1075CBF3A
:105B100001221A600A4B1A68D2075CBF01221A6080
:105B2000704700BFBCE70320B8E70320B4E70320B9
:105B3000B0E70320ACE70320A8E70320A4E7032095
:105B4000A0E70320244B1A68D0075CBF01221A602B
:105B5000224B1A68D1075CBF01221A60204B1A68D9
:105B6000D2075CBF01221A601E4B1A68D0075CBFC7
:105B700001221A601C4B1A68D1075CBF01221A600F
:105B80001A4B1A68D2075CBF01221A60184B1A68B8
:105B9000D0075CBF01221A60164B1A68D1075CBFA0
:105BA00001221A60144B1A68D2075CBF01221A60E6
:105BB000124B1A68D0075CBF01221A60104B1A689A
:105BC000D1075CBF01221A600E4B1A68D2075CBF76
:105BD00001221A60704700BFECE70320E8E70320CA
:105BE000E4E70320E0E70320DCE70320D8E7032015
:105BF000D4E70320D0E70320CCE70320C8E7032045
:105C0000C4E70320C0E7032081F0004102E000BFA9
:105C100083F0004330B54FEA41044FEA430594EA6C
:105C2000050F08BF90EA020F1FBF54EA000C55EAA7
:105C3000020C7FEA645C7FEA655C00F0E2804FEA78
:105C40005454D4EB5555B8BF6D420CDD2C4480EA5A
:105C5000020281EA030382EA000083EA010180EA8A
:105C6000020281EA0303362D88BF30BD11F0004FD8
:105C70004FEA01314FF4801C4CEA113102D040420E
:105C800061EB410113F0004F4FEA03334CEA133349
:105C900002D0524263EB430394EA050F00F0A78061
:105CA000A4F10104D5F1200E0DDB02FA0EFC22FA5C
:105CB00005F2801841F1000103FA0EF2801843FA50
:105CC00005F359410EE0A5F120050EF1200E012A41
:105CD00003FA0EFC28BF4CF0020C43FA05F3C0187F
:105CE00051EBE37101F0004507D54FF0000EDCF1F8
:105CF000000C7EEB00006EEB0101B1F5801F1BD3A1
:105D0000B1F5001F0CD349085FEA30004FEA3C0CA4
:105D100004F101044FEA445212F5800F80F09A809A
:105D2000BCF1004F08BF5FEA500C50F1000041EB9E
:105D3000045141EA050130BD5FEA4C0C404141EBA2
:105D4000010111F4801FA4F10104E9D191F0000FC9
:105D500004BF01460020B1FA81F308BF2033A3F14C
:105D60000B03B3F120020CDA0C3208DD02F1140C43
:105D7000C2F10C0201FA0CF021FA02F10CE002F17E
:105D80001402D8BFC2F1200C01FA02F120FA0CFC77
:105D9000DCBF41EA0C019040E41AA2BF01EB0451C0
:105DA000294330BD6FEA04041F3C1CDA0C340EDCBE
:105DB00004F11404C4F1200220FA04F001FA02F301
:105DC00040EA030021FA04F345EA030130BDC4F1BF
:105DD0000C04C4F1200220FA02F001FA04F340EAB4
:105DE0000300294630BD21FA04F0294630BD94F065
:105DF000000F83F4801306BF81F480110134013D4C
:105E00004EE77FEA645C18BF7FEA655C29D094EABC
:105E1000050F08BF90EA020F05D054EA000C04BF3A
:105E20001946104630BD91EA030F1EBF0021002025
:105E300030BD5FEA545C05D14000494128BF41F0C4
:105E4000004130BD14F580043CBF01F5801130BD28
:105E500001F0004545F0FE4141F470014FF00000B3
:105E600030BD7FEA645C1ABF194610467FEA655C64
:105E70001CBF0B46024650EA013406BF52EA033506
:105E800091EA030F41F4002130BD00BF90F0000FF4
:105E900004BF0021704730B54FF4806404F1320430
:105EA0004FF000054FF0000150E700BF90F0000FE9
:105EB00004BF0021704730B54FF4806404F1320410
:105EC00010F0004548BF40424FF000013EE700BFE0
:105ED00042004FEAE2014FEA31014FEA02701FBF70
:105EE00012F07F4393F07F4F81F06051704792F042
:105EF000000F14BF93F07F4F704730B54FF46074BC
:105F000001F0004521F0004120E700BF50EA010206
:105F100008BF704730B54FF000050AE050EA0102B3
:105F200008BF704730B511F0004502D5404261EB23
:105F300041014FF4806404F132045FEA915C3FF464
:105F4000DCAE4FF003025FEADC0C18BF03325FEAFD
:105F5000DC0C18BF033202EBDC02C2F1200300FAB2
:105F600003FC20FA02F001FA03FE40EA0E0021FAD7
:105F700002F11444C1E600BF70B54FF0FF0C4CF4C1
:105F8000E06C1CEA11541DBF1CEA135594EA0C0F77
:105F900095EA0C0F00F0DEF82C4481EA030621EAB2
:105FA0004C5123EA4C5350EA013518BF52EA0335ED
:105FB00041F4801143F4801338D0A0FB02CE4FF09F
:105FC0000005E1FB02E506F00042E0FB03E54FF0CF
:105FD0000006E1FB03569CF0000F18BF4EF0010EC7
:105FE000A4F1FF04B6F5007F64F5407404D25FEAC3
:105FF0004E0E6D4146EB060642EAC62141EA555176
:106000004FEAC52040EA5E504FEACE2EB4F1FD0CB7
:1060100088BFBCF5E06F1ED8BEF1004F08BF5FEA35
:10602000500E50F1000041EB045170BD06F00046E7
:1060300046EA010140EA020081EA0301B4EB5C0494
:10604000C2BFD4EB0C0541EA045170BD41F480118C
:106050004FF0000E013C00F3AB8014F1360FDEBFB1
:10606000002001F0004170BDC4F10004203C35DA8D
:106070000C341BDC04F11404C4F1200500FA05F310
:1060800020FA04F001FA05F240EA020001F00042B1
:1060900021F0004110EBD37021FA04F642EB060127
:1060A0005EEA430E08BF20EAD37070BDC4F10C0451
:1060B000C4F1200500FA04F320FA05F001FA04F215
:1060C00040EA020001F0004110EBD37041F1000101
:1060D0005EEA430E08BF20EAD37070BDC4F120050C
:1060E00000FA05F24EEA020E20FA04F301FA05F274
:1060F00043EA020321FA04F001F0004121FA04F21C
:1061000020EA020000EBD3705EEA430E08BF20EAEB
:10611000D37070BD94F0000F0FD101F00046400025
:1061200041EB010111F4801F08BF013CF7D041EAA7
:10613000060195F0000F18BF704703F000465200AB
:1061400043EB030313F4801F08BF013DF7D043EA7C
:106150000603704794EA0C0F0CEA135518BF95EA32
:106160000C0F0CD050EA410618BF52EA4306D1D1B9
:1061700081EA030101F000414FF0000070BD50EAD8
:10618000410606BF1046194652EA430619D094EA62
:106190000C0F02D150EA013613D195EA0C0F05D14C
:1061A00052EA03361CBF104619460AD181EA0301A0
:1061B00001F0004141F0FE4141F470014FF0000058
:1061C00070BD41F0FE4141F4780170BD70B54FF0F3
:1061D000FF0C4CF4E06C1CEA11541DBF1CEA135573
:1061E00094EA0C0F95EA0C0F00F0A7F8A4EB050455
:1061F00081EA030E52EA03354FEA013100F088804C
:106200004FEA03334FF0805545EA131343EA126314
:106210004FEA022245EA111545EA10654FEA0026C9
:106220000EF000419D4208BF964244F1FD0404F582
:10623000407402D25B084FEA3202B61A65EB0305DE
:106240005B084FEA32024FF480104FF4002CB6EB9B
:10625000020E75EB030E22BFB61A754640EA0C001B
:106260005B084FEA3202B6EB020E75EB030E22BF5B
:10627000B61A754640EA5C005B084FEA3202B6EB9C
:10628000020E75EB030E22BFB61A754640EA9C005B
:106290005B084FEA3202B6EB020E75EB030E22BF2B
:1062A000B61A754640EADC0055EA060E18D04FEAE9
:1062B000051545EA16754FEA06164FEAC30343EA89
:1062C00052734FEAC2025FEA1C1CC0D111F4801F56
:1062D0000BD141EA00014FF000004FF0004CB6E74F
:1062E00011F4801F04BF01430020B4F1FD0C88BFEE
:1062F000BCF5E06F3FF6AFAEB5EB030C04BFB6EBF9
:10630000020C5FEA500C50F1000041EB045170BDEB
:106310000EF0004E4EEA113114EB5C04C2BFD4EB18
:106320000C0541EA045170BD41F480114FF0000E9C
:10633000013C90E645EA060E8DE60CEA135594EA18
:106340000C0F08BF95EA0C0F3FF43BAF94EA0C0F1B
:106350000AD150EA01347FF434AF95EA0C0F7FF490
:1063600025AF104619462CE795EA0C0F06D152EAE4
:1063700003353FF4FDAE1046194622E750EA4106C8
:1063800018BF52EA43067FF4C5AE50EA41047FF4D9
:106390000DAF52EA43057FF4EBAE12E74FF0FF3C3E
:1063A00006E000BF4FF0010C02E000BF4FF0010C0F
:1063B0004DF804CD4FEA410C7FEA6C5C4FEA430C88
:1063C00018BF7FEA6C5C1BD001B050EA410C0CBFD7
:1063D00052EA430C91EA030F02BF90EA020F002039
:1063E000704710F1000F91EA030F58BF994208BFA0
:1063F00090422CBFD8176FEAE37040F0010070475D
:106400004FEA410C7FEA6C5C02D150EA013C07D1B3
:106410004FEA430C7FEA6C5CD6D152EA033CD3D0FE
:106420005DF8040B704700BF8446104662468C46F8
:106430001946634600E000BF01B5FFF7B7FF00282B
:1064400048BF10F1000F01BD4DF808EDFFF7F4FF54
:106450000CBF012000205DF808FB00BF4DF808EDDF
:10646000FFF7EAFF34BF012000205DF808FB00BF02
:106470004DF808EDFFF7E0FF94BF012000205DF824
:1064800008FB00BF4DF808EDFFF7CEFF94BF0120D9
:1064900000205DF808FB00BF4DF808EDFFF7C4FFD2
:1064A00034BF012000205DF808FB00BF4FEA410C1B
:1064B0007FEA6C5C02D150EA013C0AD14FEA430CFE
:1064C0007FEA6C5C02D152EA033C02D14FF000003B
:1064D00070474FF0010070474FEA410212F5001279
:1064E00015D211D56FF47873B3EB625212D94FEA1B
:1064F000C12343F0004343EA505311F0004F23FA05
:1065000002F018BF404270474FF00000704750EA59
:10651000013005D111F0004008BF6FF00040704716
:106520004FF00000704700BF4A0011D212F5001270
:1065300011D20DD56FF47873B3EB62520ED44FEADB
:10654000C12343F0004343EA505323FA02F070475B
:106550004FF00000704750EA013002D14FF0FF3099
:1065600070474FF0000070474FEA4102B2F1E0433C
:1065700024BFB3F5001CDCF1FE5C0DD901F0004C2A
:106580004FEAC0024CEA5070B2F1004F40EB83007A
:1065900008BF20F00100704711F0804F21D113F1A6
:1065A0003872BCBF01F00040704741F480114FEADF
:1065B0005252C2F11802C2F1200C10FA0CF320FA68
:1065C00002F018BF40F001004FEAC1234FEAD32385
:1065D00003FA0CFC40EA0C0023FA02F34FEA4303EF
:1065E000CCE77FEA625307D150EA01331EBF4FF078
:1065F000FE4040F44000704701F0004040F0FE4093
:1066000040F40000704700BF10B5054C13462CB194
:106610000A4601460220AFF3008010BD204610BD9F
:106620000000000010B5431E0A44914204D011F846
:10663000014B03F8014FF8E710BD024403469342B3
:1066400002D003F8011BFAE77047000038B5124B7F
:106650001C68A36B0546D3B91820FEF761FA43F214
:106660000E33A06303804AF6CD33438041F23423D6
:1066700083804EF26D63C3804DF6EC630381052386
:1066800043810B23838101220023C0E90423A36BF0
:1066900000221D615A6138BDBCE30320034613F894
:1066A000012B002AFBD1181A0138704721400D0038
:1066B0005D400D0089400D008D400D000000000080
:1066C000557062656174204C6162732044722E20A3
:1066D00057617474736F6E20456E657267792044DC
:1066E000617461204578616D706C6520536B6574D1
:1066F0006368002A2A2A2A2A2A2A2A2A2A2A2A2AAD
:106700002A2A2A2A2A2A2A2A2A2A2A2A2A2A2A2AE9
:106710002A2A2A2A2A2A2A2A2A2A2A2A2A2A2A2AD9
:106720002A2A2A2A2A0043757272656E74203D2037
:10673000004C696E65204672657175656E637920DF
:106740003D2000416E616C6F6720496E707574204A
:10675000566F6C74616765203D2000506F776572DD
:1067600020466163746F72203D2000416374697636
:106770006520506F776572203D200052656163741B
:1067800069766520506F776572203D2000417070FA
:106790006172656E7420506F776572203D20001B1A
:1067A00063004572726F722072657475726E6564F3
:1067B000212000000000000000000000F14B0D004F
:1067C000E74B0D00DD4B0D00D34B0D00C74B0D000B
:1067D000BB4B0D00AF4B0D00A74B0D009D4B0D00AB
:1067E000934B0D004D500D00000000000000000014
:1067F000114C0D005B4C0D00334C0D00134C0D0083
:106800003B4C0D00434C0D004B4C0D00534C0D0008
:106810000000000000000000854D0D00754D0D00CA
:10682000774D0D00626175640053657269616C009B
:1068300053657269616C31007479706500706172C2
:10684000616D00636D6400696400686E6400737458
:10685000726D0066696C74006C766C0061646448EB
:10686000616E646C65720072656D6F766548616E0D
:10687000646C657200656E756D48616E646C6572FE
:1068800073004A534F4E53747265616D4C6F674885
:10689000616E646C65720061707000253031307516
:1068A00020005D20002564002C200028293A2000CB
:1068B000205B00636F6465203D20002569006465EE
:1068C0007461696C73203D20000D0A006C6E0066D7
:1068D0006E00636F64650064657461696C006E6F5F
:1068E0006E6500747261636500696E666F00776142
:1068F000726E006572726F720070616E6963006122
:106900006C6C00000000000000000000C74E0D008D
:10691000BD4E0D00B34E0D00A94E0D009D4E0D0055
:10692000914E0D00854E0D007D4E0D00734E0D00F5
:10693000694E0D004D500D000000000000000000E9
:10694000E54F0D00EF4F0D00F94F0D0003500D0006
:106950000D500D0019500D0025500D0031500D0047
:1069600039500D0043500D004D500D006E616E000A
:106970006F7666002E00696E66005A00252B303354
:10698000643A253032750025592D256D2D25645426
:1069900025483A254D3A2553257A00617363746979
:1069A0006D650000000000000000000055540D005F
:1069B000A5540D00B3540D002D510D0069540D0068
:1069C0008B540D0077540D009F540D0057540D004B
:1069D0005B540D0000000000000000005D550D003C
:1069E000AD550D00BB550D002D510D0099550D00F5
:1069F0005F550D0075550D00A7550D008B550D0009
:106A000059550D000000000000000000C7560D00A1
:106A1000BD560D00B3560D0069560D00A7560D006A
:106A20009B560D008F560D0087560D007D560D00AC
:106A300073560D004D500D000000000000000000D6
:106A40000000000000000000000000000000000046
:106A50000000000000000000000000000000000036
:106A60000000000000000000000000000000000026
:106A70000000000000000000000000000000000016
:106A80000000000000000000000000000000000006
:106A900000000000000000000000000043000000B3
:106AA00041450D0045470D00594B0D00FD4B0D00B4
:106AB000594E0D00954F0D0019510D00B9530D00A1
:106AC0000D540D0041540D00D1560D0079590D00A3
:106AD0003D5A0D00C15A0D00455B0D00000000003D
:046AE00000000000B2
:106AE4000D000000010000009B690D000000000083
:106AF4003C6A0D005C6A0D007C6A0D000000000019
:106B04000000000000000000000000009C6A0D006E
:106B14000000000000000000000000000000000071
:106B24000000000000000000000000000000000061
:106B34000000000000000000000000000000000051
:106B44000000000000000000000000005CE30320DF
:106B5400FFFFFFFF00000102030405060708090AFE
:106B64000B0C0D0E0F101112131415161718191AF9
:086B74001B1C1D1E1F20280040
:046B7C007856341201
:04000003D0004020C9
:00000001FF
