:02000002D0002C
:1040000000400D00486C0D00000006000C0005018A
:0840100004017E050000000020
:0440180000670D0030
:1040200009480A49884208B505D0094A824202D0A7
:10403000121A02F021FB0748074A0021121A02F067
:1040400026FB014808BD00BF48E30320B06B0D000C
:10405000B8E30320B8E30320F0E7032070B501F0D4
:1040600003FC074C074BE41AA40800251E46A54292
:1040700004D056F8253098470135F8E770BD00BFE9
:10408000A46B0D00646B0D0000F09EBA08B500F043
:1040900089FBBDE8084001F0B5BB00F099BD00F018
:1040A00097BD0078B0FA80F0400970470123037093
:1040B00070477047000000002DE9F84F8B8807EE2D
:1040C000903AF8EEE77AF2EE046A87EEA67A1446A2
:1040D0000D460E264FF0010ADFED3F6A82ED017AB0
:1040E000D1ED037AF8EE677A87EEA67ADFED3B6AC8
:1040F00082ED057ACB8807EE903AF8EEE77A87EE04
:10410000A67A82ED027A0B899FED357A07EE903A16
:10411000F8EEE77AC7EE876A16EE900A01F002FF22
:104120002BA3D3E9002301F051FF02F047FAE0602E
:10413000B5F90AB04FEADB7001F0E2FE02F03EFA98
:1041400080F000470AFA06F000EA0B00304101F067
:10415000D7FE8046C6F10F000AFA00F0894601F04A
:10416000CFFE02460B464046494602F059F88046CB
:104170003846894601F0D6FE02460B46404649467F
:1041800001F072FD02F01AFA013E032E0746D9D162
:104190002061D5ED047AB8EE677ADFED127AC7EECA
:1041A000276AC4ED066A95ED057AB8EE477AC7EE40
:1041B000276AC4ED076A95ED067AB8EE477AC7EE2E
:1041C000276AC4ED086ABDE8F88F00BFAFF300802E
:1041D0006666666666660A4000401C4600007A44D1
:1041E00000C07F440000C84270B553181578987815
:1041F000144600230131A61AB14204DB14F8016B06
:104200003344DBB2F7E7062D04D0512D14BF012251
:10421000022200E0002283420CBF1046052070BD40
:104220002DE9F74FDDF83490DDF8308003F1020A14
:10423000CA4507461D467FDAA5238DF800300823BE
:104240008DF80130412300248DF80230EEB24E2368
:104250008DF805308DF803108DF804208DF8066078
:104260008DF8074023461DF803200133072B144423
:10427000F9D101F045FA334900F08CFF01F040FA22
:104280000A222146E4B200F0DFFF8DF8074001F07A
:1042900037FA2D4900F07EFF01F032FA21460A225A
:1042A00000F0C8FF01F048FB397800F045FD00241C
:1042B00001F042FB1DF804B0036859469B6898471B
:1042C00001F01EFA2346214A002101F0B0F8013422
:1042D00001F016FA0A22594600F0ACFF082CE7D18B
:1042E00001F02AFB00F030FD642000F081FC01F0B9
:1042F00023FBF21CD2B2397800F01BFD01F01CFB4D
:1043000003681B699847EB1C984217D14446C8EBD9
:1043100004039A4507DB01F00FFB03685B699847CC
:1043200004F8010BF3E74B4642462946384603B0F2
:10433000BDE8F04FFFF758BF042000E0032003B0B2
:10434000BDE8F08F14670D0025670D003B670D0079
:104350002DE9F04F06468DB015460C46002944D095
:104360002323019303AB009302221C230021FFF7B8
:1043700057FF002840F0C3809DF80F209DF80E30B5
:1043800043EA022323809DF811209DF8103043EA70
:10439000022363809DF813209DF8123043EA022324
:1043A000A3809DF815209DF8143043EA0223E38092
:1043B0009DF817209DF8163043EA022323819DF9CA
:1043C00019209DF8183003EB02236381DDF81A30C1
:1043D000E360DDF81E302361DDF822306361DDF833
:1043E0002630A361322000F003FC002D00F086800F
:1043F000132303AC0193009410231E2200213046A6
:10440000FFF70EFF00287AD17068421C10D1DDF84A
:104410000E20DDF812305B084FEA3202C5E90023B6
:10442000DDF81620DDF81A305B084FEA32021EE094
:10443000012202FA00F0DDF80E30DDF812104FEA2A
:10444000E07903FB09F700FB0177A3FB0001394486
:10445000C5E900017168DDF81630DDF81A708A4090
:10446000D117594302FB0711A3FB02230B44C5E9F3
:104470000223322000F0BCFB13230193009410238D
:104480002E2200213046FFF7CBFE002837D171687D
:104490004B1C10D1DDF80E20DDF812305B084FEA1E
:1044A0003202C5E90423DDF81620DDF81A305B0876
:1044B0004FEA32021FE0012202FA01F8DDF80E3065
:1044C000DDF812404FEAE87B03FB0BF108FB041117
:1044D000A3FB08898944C5E904897468DDF81630AE
:1044E000DDF81A10A240D71703FB07F402FB0141C5
:1044F000A3FB02230B44C5E9062300E028460DB0C8
:10450000BDE8F08F1FB50523019302AB0C46009365
:10451000DC2202230021FFF783FE28B99DF80A3030
:10452000003318BF0123237004B010BD1FB505234D
:10453000019302AB0C4600939E2202230021FFF759
:104540006FFE10B9BDF80A30236004B010BD13B57A
:104550000170044601F0F0F900F0DCFB02A9002331
:1045600001F8053D2046FFF7CDFF48B99DF803301F
:1045700033B101A92046FFF7D9FF019B023B6360DD
:1045800002B010BD00F078B910B50C4B0C4C188877
:10459000217801F0B8F90B490B685A1C032392FBF0
:1045A000F3F303EB4303D31A022B0B6001BF236821
:1045B000B3FA83F35B09236010BD00BF48E3032017
:1045C0004CE30320BCE3032007B5154800231A463B
:1045D0001946406800F0CCFA124B0121188801F00E
:1045E00081F9002200924FF0FF3310460E4900F08F
:1045F000B3FB01F085F84FF4165101F075F801F0A6
:104600007FF80A4900F0DDFD01F07AF8084900F072
:10461000D8FD0848742103B05DF804EBFFF797BF9D
:1046200008E7032048E3032089450D0052670D0089
:1046300085670D00C0E3032038B5044601F060F83B
:104640004E4900F0AEFD01F05BF80422218800F035
:1046500027FE01F055F84A4900F0A3FD01F050F89B
:104660000422618800F01CFE01F04AF8454900F080
:1046700098FD01F045F80546606801F053FC41ECF7
:10468000100B0421284600F0C7FE01F039F83E491E
:1046900000F087FD01F034F80546606901F042FC46
:1046A00041EC100B0421284600F0B6FE01F028F87A
:1046B000364900F076FD01F023F80546A06801F0C8
:1046C00031FC41EC100B0421284600F0A5FE01F05E
:1046D00017F82F4900F05EFD01F012F80546E0687A
:1046E00001F020FC41EC100B0421284600F094FE60
:1046F00001F006F8274900F054FD01F001F80546E5
:10470000206901F00FFC41EC100B0421284600F059
:1047100083FE00F0F5FF204900F043FD00F0F0FFBC
:104720000546A06901F0FEFB41EC100B0421284670
:1047300000F072FE00F0E4FF184900F032FD00F0D6
:10474000DFFF0546E06901F0EDFB41EC100B0421B1
:10475000284600F061FE00F0D3FF114900F021FD72
:1047600000F0CEFF0546206A01F0DCFB41EC100BA7
:1047700028460421BDE8384000F04EBEB8670D0061
:10478000C9670D0005680D00DB670D00E6670D00C9
:10479000F8670D0010680D0020680D0030680D00EE
:1047A00042680D0010B590B0002269460F48FFF72F
:1047B000CFFD044640B907AA69460C48FFF77CFCC8
:1047C00007A8FFF739FF0AE000F09AFF084900F058
:1047D000E1FC00F095FF0A22214600F061FD4FF454
:1047E0007A7000F005FA10B010BD00BFC0E30320DE
:1047F00054680D0008B500F03FF80248BDE80840D5
:10480000FFF757BCC0E3032008B5024B1B689B6849
:10481000019308BD4802030008B5024B1B681B69E1
:10482000019308BD4802030008B5024B1B685B6991
:10483000019308BD4802030008B5024B1B681B6BBF
:10484000019308BD4802030008B5024B1B685B6C6E
:10485000019308BD4802030008B5024B1B685B6862
:10486000019308BD1802030008B5024B1B685B6981
:10487000019308BD1802030008B5024B1B681B68B2
:10488000019308BD2C02030008B5024B1B689B680E
:10489000019308BD2C02030008B5024B1B68DB68BE
:1048A000019308BD2C02030008B5024B1B681B696D
:1048B000019308BD2C02030008B5024B1B689B69DD
:1048C000019308BD2C02030008B5024B1B68DB698D
:1048D000019308BD2C02030008B5024B1B68DB687E
:1048E000019308BD2802030008B5024B1B685B69F1
:1048F000019308BD2802030008B5024B1B689B69A1
:10490000019308BD2802030008B5024B1B68DB6950
:10491000019308BD2802030008B5024B1B681B6AFF
:10492000019308BD2802030008B5024B1B685B6AAF
:10493000019308BD2802030008B5024B1B689B6A5F
:10494000019308BD2802030008B5024B1B68DB6A0F
:10495000019308BD2802030008B5024B1B681B6BBE
:10496000019308BD2802030008B5024B1B685B6B6E
:10497000019308BD2802030008B5024B1B681B6C9D
:10498000019308BD2802030008B5024B1B685B6950
:10499000019308BD6402030008B5024B1B689B68C5
:1049A000019308BD6802030008B5024B1B68DB6871
:1049B000019308BD6802030008B5024B1B68DB6960
:1049C000019308BD3002030008B5024B1B681B6A47
:1049D000019308BD3002030008B5024B1B681B6839
:1049E000019308BD3C02030008B5024B1B68DB685D
:1049F000019308BD3C02030008B5024B1B681B690C
:104A0000019308BD3C02030008B5024B1B685B69BB
:104A1000019308BD3C02030008B5024B1B689B696B
:104A2000019308BD3C02030008B5024B1B68DB691B
:104A3000019308BD3C02030008B5024B1B681B6ACA
:104A4000019308BD3C02030008B5024B1B689B6A3A
:104A5000019308BD3C02030008B5024B1B681B68AC
:104A6000019308BD4C02030008B5024B1B685B684C
:104A7000019308BD4C02030008B5024B1B681B697B
:104A8000019308BD4C02030008B5024B1B685B692B
:104A9000019308BD4C02030008B5024B1B689B69DB
:104AA000019308BD4C02030008B5024B1B68DB698B
:104AB000019308BD4C02030008B5024B1B681B6A3A
:104AC000019308BD4C02030008B5024B1B685B68EC
:104AD000019308BD2002030008B5024B1B685B6907
:104AE000019308BD2002030008B5034B1B68D3F8EF
:104AF0008830019308BD00002002030008B5034B75
:104B00001B68D3F89430019308BD00002002030015
:104B100008B5024B1B68DB6B019308BD4402030020
:104B200008B5024B1B685B68019308BD4002030097
:104B300008B5024B1B689B68019308BD4002030047
:104B400008B5024B1B68DB68019308BD40020300F7
:104B500008B5024B1B681B69019308BD40020300A6
:104B600008B5024B1B685B69019308BD4002030056
:104B700008B5024B1B689B69019308BD4002030006
:104B800008B5024B1B68DB69019308BD40020300B6
:104B900008B5024B1B681B6A019308BD4002030065
:104BA00008B5024B1B681B6B019308BD4002030054
:104BB00008B5024B1B685B6B019308BD4002030004
:104BC00008B5024B1B681B68019308BD1C0203005B
:104BD00008B5024B1B685B68019308BD1C0203000B
:104BE00008B5024B1B685B6A019308BD1C020300F9
:104BF0000021FFF771BF0000024800230360FFF7A8
:104C000023BE00BFC8E3032010B58368044613B178
:104C1000032201469847204610BD002211464068F5
:104C2000FFF7B6BF002211464068FFF7C1BF002260
:104C30004068FFF7B5BF002281F001014068FFF72F
:104C40009FBF00231A4619464068FFF791BF002313
:104C50001A4619464068FFF783BF00221146406894
:104C6000FFF776BF002211464068FFF761BF0022C0
:104C700002214068FFF764BF00231A464068FFF72F
:104C80004FBF0000024B03225A60024A1A6070476D
:104C9000CCE3032070680D007047F8B50646154652
:104CA0000C468F18BC4206D0336814F8011B9B6871
:104CB00030469847F6E72846F8BD0022007CFFF70B
:104CC0002BBE0021007CFFF72FBE0021007CFFF7E8
:104CD00033BE0021007CFFF737BE0021007CFFF7C8
:104CE0003BBE10B51421044600F06DFE204610BDF9
:104CF00010B504464FF47A730846A3600021044BB4
:104D0000207461602360FFF737FE204610BD00BFAE
:104D1000A4680D0000231A461946007CFFF7DCBD8D
:104D200013B50024007C0094FFF7DEFDC0B202B092
:104D300010BD0123FFF7F4BF0022007CFFF7DCBDAC
:104D40000022007CFFF7E0BD0121FFF7F9BF002141
:104D5000007CFFF709BE0047F0B585B01C460E4643
:104D600017460546FFF7B0FD002084424FF00403CC
:104D700003908DF80C30A5BF9DF828308DF80E30CB
:104D8000034603AB009332463B460649A8BF8DF865
:104D90000D402846FFF790FDB0FA80F0400905B0BD
:104DA000F0BD00BF574D0D00704710B518210446E7
:104DB00000F009FE204610BDF0B5037D062B8DB036
:104DC0000E4600F104074FF0000402D000F1080580
:104DD00018E00CAD394605F8304D2F232A460A203D
:104DE000FFF7D2FD284601F083FC33680246DB68FA
:104DF0002946304698470FE024B12E21304600F076
:104E0000CDF9044415F8011D0A22304600F010FACD
:104E1000BD420444F0D120460DB0F0BD10B5054BA5
:104E20000446112240F8043B002101F030FC2046EA
:104E300010BD00BFCC680D000346074A10B543F80B
:104E4000042B01F1100251F8044B43F8044B91423A
:104E5000F9D10A781A7010BDCC680D0010B59DF814
:104E6000084044EA032343EA024242EA0161042380
:104E70004160037510BD37B50D788B784A78C978D5
:104E800000912946FFF7EAFF03B030BD014B024A0B
:104E90001A607047D4E303204B690D0000221146CD
:104EA0004068FFF775BE002211464068FFF780BEDC
:104EB00000224068FFF774BE002281F001014068C3
:104EC000FFF75EBE00231A4601214068FFF750BE7F
:104ED00000231A4619464068FFF742BE00221146D9
:104EE0004068FFF735BE002211464068FFF720BE3C
:104EF000002202214068FFF723BE00231A464068C3
:104F0000FFF70EBE38B5054688B104684CB1A368FA
:104F10001BB103222146204698471021204600F06D
:104F200052FD28461421BDE8384000F04CBD38BD84
:104F300010B103685B681847704710B503680446F2
:104F4000BBB15868FFF760FC78B923685A7C12B986
:104F50005868FFF761FC23685868FFF765FC206814
:104F60000023236028B1FFF7CDFF206808B1FFF7C9
:104F7000C9FF204610BD000038B50C4B0360044645
:104F8000D0F8CC0108B1FFF78AF8D4F8C45135B194
:104F90002846FFF7D2FF0421284600F014FDA06840
:104FA00008B1FFF7C5FF204638BD00BFC0690D003E
:104FB00038B50E4C0E4B23600025022304F5E47037
:104FC0006360A560C4F8C451C4F8C851FFF73CFC45
:104FD000084BC4F8CC5184F8D05123602046064ACF
:104FE0000649BDE8384000F0E9BC00BFD8E3032023
:104FF000F4690D00C0690D00B8E30320794F0D007E
:1050000000231A464068FFF78BBD0022022140684A
:10501000FFF796BD002211464068FFF789BD0022C8
:1050200011464068FFF794BD00231A4619464068B0
:10503000FFF796BD00231A4619464068FFF798BD52
:10504000002281F001014068FFF79ABD002240680C
:10505000FFF7A6BD002211464068FFF7A9BD002258
:1050600011464068FFF794BD2DE9F043002495B048
:1050700016460D460746FFF7D1FE214620220CA812
:10508000009401F004FB40230C9321466B460CAACC
:105090003046FFF789FC0446002844D1024601212E
:1050A0006868FFF755FD0221804622466868FFF7D1
:1050B0004FFD009E81462146002E34D0002932D17A
:1050C0007368022B02D00A2B09D02AE0B8F1000F36
:1050D00027D0716938460431FFF7CDFE20E0B9F1E1
:1050E000000F1ED07469112201A801F0D0FA062326
:1050F0008DF8143001AD04F10803183418685968AC
:105100002A4603C20833A3421546F7D101A906A8CF
:1051100007ADFFF791FE0FCD3C1D0FC42B68237028
:105120000121F669C8E70098FFF736FC384615B04C
:10513000BDE8F083024B034A1A6000225A607047B0
:10514000ACE50320F4690D00F8B506460D468F184E
:105150000024BD420CD0336815F8011B9B68304613
:105160009847002801DB0444F3E7002C08BF0446FD
:105170002046F8BD70B505460C46084649B101F019
:10518000B7FA2B68024621462846DB68BDE8704026
:10519000184770BD08B5FFF7EDFF08BD03689B68B1
:1051A000184708B5FFF7E6FF08BD38B50D210546DD
:1051B000FFF7F4FF0A2104462846FFF7EFFF2044DB
:1051C00038BD38B50546FFF7D5FF04462846FFF73A
:1051D000ECFF204438BD30B58BB00B4600218DF874
:1051E0002410012A98BF0A220DF12304B3FBF2F523
:1051F00005FB123303F0FF03092B94BF3033373321
:10520000DBB2214604F801392B46002DEED1FFF721
:10521000B1FF0BB030BD10B42AB903685DF8044B80
:105220009B68C9B21847D2B25DF8044BFFF7D3BFF1
:10523000FFF7F1BF38B50546FFF7EDFF04462846F6
:10524000FFF7B3FF204438BD38B50546FFF7E3FF4D
:1052500004462846FFF7A9FF204438BD2DE9F04158
:1052600007460E4615462AB90368C9B29B68BDE8D1
:10527000F04118470A2A02D1002901DA04E0D2B22B
:10528000BDE8F041FFF7A7BF2D21FFF787FF2A46B2
:10529000044671423846FFF79EFF2044BDE8F08186
:1052A00038B50546FFF7DAFF04462846FFF77DFFCD
:1052B000204438BD2DE9F04757EC106B82460D466F
:1052C00010EE102A3B4610EE100A394601F018F98C
:1052D00008B1484912E027F000494FF0FF32464B31
:1052E0003046494601F00CF968B94FF0FF32424BA5
:1052F0003046494601F0E6F828B940495046FFF7E4
:1053000039FFBDE8F0874FF060423D4B30463946EB
:1053100001F0ECF808B13B49F0E74FF060423A4B3E
:105320003046394601F0C4F80028F4D100220023A9
:105330003046394601F0BCF840B12D215046FFF708
:105340002DFF07F1004304461F4600E004462F49A5
:105350004FF0000800205FFA88F39D4206D9002232
:105360002B4B00F05DFF08F10108F4E732463B46A5
:1053700000F07AFC0F46064601F000F90A220146C9
:1053800080465046FFF727FF04447DB3404600F0B7
:10539000A7FD02460B463046394600F063FC064640
:1053A0000F4650461B49FFF7E5FE0444184B002208
:1053B0003046394600F00AFE0F46064601F0B6F8C0
:1053C0000A22014680465046FFF748FF0444404603
:1053D00000F096FD02460B463046394600F042FC8E
:1053E000013D15F0FF0506460F46DFD12046BDE81A
:1053F000F08700BF206A0D00FFFFEF7F2A6A0D00D3
:10540000FFFFEF41246A0D00FFFFEFC10000E03F06
:1054100000002440286A0D0038B5C9B20546FFF7E0
:1054200049FF04462846FFF7C0FE204438BD0CB4AF
:105430002DE9F04387B000AF07F13804054654F872
:10544000049B3C600E4623464A461421381DFFF754
:10545000C7FB132805D8391D2846FFF78BFE0446E5
:1054600013E000F1080323F00703E846ADEB030D5A
:10547000411C23464A4668463C60FFF7B1FB69463B
:105480002846FFF777FE0446C5461EB12846FFF7BB
:105490008CFE044420461C37BD46BDE8F04302B0F4
:1054A000704710B50446FFF7AFFB204610BD000063
:1054B0000348044A04490023836000F07FBA00BF18
:1054C000B4E50320B8E30320A3540D00704710B5E2
:1054D0001021044600F077FA204610BD70B5084B45
:1054E0000360044600250E4640F80C5FFFF7A4F960
:1054F00030462671FFF760FAA560204670BD00BFF8
:10550000386A0D000079FFF75FBA0000044B0020F5
:105510004FF6FF72187058809A80FFF7D5BA00BF17
:10552000C4E50320024B1A68024B1A60704700BFA3
:1055300050E30320CCE5032070474174704708B561
:10554000007CFFF781FA20EAE07008BD08B5007C16
:10555000FFF752FA20EAE07008BD08B5007CFFF7BB
:105560005BFA30EA200028BF4FF0FF3008BD08B5D5
:10557000007CFFF749FA30EA200028BF4FF0FF30E7
:1055800008BD007CFFF750BA10B51421044600F0A6
:105590001AFA204610BD70B5457C04460E4625B962
:1055A000007CFFF751FA002805DD3146207CBDE87C
:1055B0007040FFF719BA284670BD000010B50446C8
:1055C00008461146002262604FF47A72A260054AD2
:1055D00022600122207462741A46FFF7FDF920460A
:1055E00010BD00BF746A0D00007CFFF725BA0000F3
:1055F00038B50C4D296811F0010411D12846FEF789
:1056000050FD68B1084A094B09482146FFF7D6FF0B
:105610002846FEF74BFD074A0749054800F0CEF93A
:10562000034838BD68E603206CE60320E4E5032068
:10563000D0E50320B8E3032039550D0041747047CD
:10564000704708B50021007CFFF726FA30EA2000F9
:1056500028BF4FF0FF3008BD08B50121007CFFF7DF
:105660001BFA30EA200028BF4FF0FF3008BD08B514
:10567000007CFFF709FA20EAE07008BD08B5007C5D
:10568000FFF7FAF920EAE07008BD007CFFF714BAD2
:1056900010B51421044600F096F9204610BD38B527
:1056A0000446007C0D46FFF7EFF9002801DC607C22
:1056B00028B12946207CFFF7F7F920EAE07038BDD1
:1056C00010B50446002363604FF47A73A360054B62
:1056D000236001230846217463741146FFF7BCF967
:1056E000204610BDA46A0D000022007CFFF7BCB963
:1056F00010B514220446002100F0C9FF204610BD59
:1057000030B50E4D87B001A8FFF7F2FF296811F000
:10571000010410D12846FEF7C4FC60B101AA21465D
:105720000748FFF7CDFF2846FEF7C0FC054A0649AB
:10573000034800F043F9024807B030BDF0E603200B
:10574000F4E60320B8E3032041560D000022114681
:105750004068FFF7FDB9002211464068FFF718BA0C
:10576000002211464068FFF723BA00224068FFF785
:1057700017BA002281F001014068FFF701BA002347
:105780001A4619464068FFF7F3B900231A4619462E
:105790004068FFF7E5B9002211464068FFF7C8B935
:1057A000002202214068FFF7CBB900231A46406867
:1057B000FFF7B6B9024B04225A60024A1A607047DA
:1057C00008E70320D46A0D0008B50C4B33B1FFF78E
:1057D00097FF03681B699847002809DC084B63B1F1
:1057E000FFF706FF03681B699847002803DC08BD24
:1057F000AFF30080F2E7AFF3008008BD00000000C7
:105800000000000008B5FFF7DFFFFFF72DF8014BA0
:10581000186008BD14E7032007B5002300931A465B
:105820006FF07701FFF76AF903B05DF804FB000041
:1058300007B543880A2B08D0502B09D1094B1B68A8
:105840003BB103B05DF804EB1847FFF7E5FF06E056
:10585000002300931A466FF07701FFF74FF903B06A
:105860005DF804FB10E7032010B5FEF7F5FF0446D2
:1058700000F016FF074B13B12046AFF30080002164
:105880000448FFF745F900210348BDE81040FFF741
:105890002BB900BF0000000031580D0010B50446C0
:1058A0000F48FFF72FFE28B1A4F10B03022B01D8FC
:1058B000002010BD00F040F8FFF749FA08B1012CB4
:1058C000F6D9FFF795FEFFF78FFE18B1A4F1090393
:1058D000012BEDD9232C8CBF0020012010BD00BF6F
:1058E00030E70320232838B504460D460AD8FF299F
:1058F00008D0FFF7D3FF28B129462046BDE838403D
:10590000FEF7C2BF38BD38B504460D46FEF7C4FFEA
:10591000FF2810D0062804D84D2323FA00F0C3072F
:1059200009D42046FFF7BAFF28B129462046BDE832
:105930003840FEF7B9BF38BD38B50B4D296811F0B6
:1059400001040FD12846FEF7ACFB58B121460748A9
:10595000FFF7CEF92846FEF7A9FB054A054903489B
:1059600000F02CF8014838BD18E703201CE703209D
:10597000B8E30320994C0D0070B50C4C0C4E0D4D46
:1059800000212046FFF7AAFD20460B4C324629464F
:1059900000F014F801212046FFF7A0FD3246294609
:1059A0002046BDE8704000F009B800BF30E7032092
:1059B000B8E30320CD540D0040E703200B46014619
:1059C000184600F04BBEFEF768BB0000244B1A6877
:1059D000D0075CBF01221A60224B1A68D1075CBF56
:1059E00001221A60204B1A68D2075CBF01221A609C
:1059F0001E4B1A68D0075CBF01221A601C4B1A6844
:105A0000D1075CBF01221A601A4B1A68D2075CBF2B
:105A100001221A60184B1A68D0075CBF01221A6075
:105A2000164B1A68D1075CBF01221A60144B1A6822
:105A3000D2075CBF01221A60124B1A68D0075CBF04
:105A400001221A60104B1A68D1075CBF01221A604C
:105A50000E4B1A68D2075CBF01221A60704700BF64
:105A60007CE7032078E7032074E7032070E7032036
:105A70006CE7032068E7032064E7032060E7032066
:105A80005CE7032058E7032054E7032050E7032096
:105A9000184B1A68D1075CBF01221A60164B1A68AE
:105AA000D2075CBF01221A60144B1A68D0075CBF92
:105AB00001221A60124B1A68D1075CBF01221A60DA
:105AC000104B1A68D2075CBF01221A600E4B1A688D
:105AD000D0075CBF01221A600C4B1A68D1075CBF6B
:105AE00001221A600A4B1A68D2075CBF01221A60B1
:105AF000704700BF9CE7032098E7032094E703204A
:105B000090E703208CE7032088E7032084E7032045
:105B100080E70320184B1A68D1075CBF01221A6086
:105B2000164B1A68D2075CBF01221A60144B1A6820
:105B3000D0075CBF01221A60124B1A68D1075CBF04
:105B400001221A60104B1A68D2075CBF01221A604A
:105B50000E4B1A68D0075CBF01221A600C4B1A6802
:105B6000D1075CBF01221A600A4B1A68D2075CBFDA
:105B700001221A60704700BFBCE70320B8E703208A
:105B8000B4E70320B0E70320ACE70320A8E7032035
:105B9000A4E70320A0E70320244B1A68D0075CBFCA
:105BA00001221A60224B1A68D1075CBF01221A60D9
:105BB000204B1A68D2075CBF01221A601E4B1A687C
:105BC000D0075CBF01221A601C4B1A68D1075CBF6A
:105BD00001221A601A4B1A68D2075CBF01221A60B0
:105BE000184B1A68D0075CBF01221A60164B1A685E
:105BF000D1075CBF01221A60144B1A68D2075CBF40
:105C000001221A60124B1A68D0075CBF01221A6089
:105C1000104B1A68D1075CBF01221A600E4B1A683C
:105C2000D2075CBF01221A60704700BFECE7032077
:105C3000E8E70320E4E70320E0E70320DCE70320B4
:105C4000D8E70320D4E70320D0E70320CCE70320E4
:105C5000C8E70320C4E70320C0E7032081F0004128
:105C600002E000BF83F0004330B54FEA41044FEA41
:105C7000430594EA050F08BF90EA020F1FBF54EADC
:105C8000000C55EA020C7FEA645C7FEA655C00F078
:105C9000E2804FEA5454D4EB5555B8BF6D420CDD49
:105CA0002C4480EA020281EA030382EA000083EACC
:105CB000010180EA020281EA0303362D88BF30BD6C
:105CC00011F0004F4FEA01314FF4801C4CEA1131C2
:105CD00002D0404261EB410113F0004F4FEA033321
:105CE0004CEA133302D0524263EB430394EA050FAC
:105CF00000F0A780A4F10104D5F1200E0DDB02FA1B
:105D00000EFC22FA05F2801841F1000103FA0EF2AE
:105D1000801843FA05F359410EE0A5F120050EF174
:105D2000200E012A03FA0EFC28BF4CF0020C43FAA5
:105D300005F3C01851EBE37101F0004507D54FF0B2
:105D4000000EDCF1000C7EEB00006EEB0101B1F502
:105D5000801F1BD3B1F5001F0CD349085FEA300048
:105D60004FEA3C0C04F101044FEA445212F5800F53
:105D700080F09A80BCF1004F08BF5FEA500C50F1F0
:105D8000000041EB045141EA050130BD5FEA4C0CD3
:105D9000404141EB010111F4801FA4F10104E9D15C
:105DA00091F0000F04BF01460020B1FA81F308BF53
:105DB0002033A3F10B03B3F120020CDA0C3208DD1F
:105DC00002F1140CC2F10C0201FA0CF021FA02F1FA
:105DD0000CE002F11402D8BFC2F1200C01FA02F16A
:105DE00020FA0CFCDCBF41EA0C019040E41AA2BF8F
:105DF00001EB0451294330BD6FEA04041F3C1CDA57
:105E00000C340EDC04F11404C4F1200220FA04F076
:105E100001FA02F340EA030021FA04F345EA030120
:105E200030BDC4F10C04C4F1200220FA02F001FAE2
:105E300004F340EA0300294630BD21FA04F0294664
:105E400030BD94F0000F83F4801306BF81F48011FD
:105E50000134013D4EE77FEA645C18BF7FEA655C70
:105E600029D094EA050F08BF90EA020F05D054EA42
:105E7000000C04BF1946104630BD91EA030F1EBF47
:105E80000021002030BD5FEA545C05D1400049414B
:105E900028BF41F0004130BD14F580043CBF01F53E
:105EA000801130BD01F0004545F0FE4141F4700124
:105EB0004FF0000030BD7FEA645C1ABF19461046FF
:105EC0007FEA655C1CBF0B46024650EA013406BF00
:105ED00052EA033591EA030F41F4002130BD00BFBF
:105EE00090F0000F04BF0021704730B54FF480647C
:105EF00004F132044FF000054FF0000150E700BFFD
:105F000090F0000F04BF0021704730B54FF480645B
:105F100004F1320410F0004548BF40424FF0000148
:105F20003EE700BF42004FEAE2014FEA31014FEA8B
:105F300002701FBF12F07F4393F07F4F81F06051DA
:105F4000704792F0000F14BF93F07F4F704730B549
:105F50004FF4607401F0004521F0004120E700BFDC
:105F600050EA010208BF704730B54FF000050AE063
:105F700050EA010208BF704730B511F0004502D564
:105F8000404261EB41014FF4806404F132045FEA66
:105F9000915C3FF4DCAE4FF003025FEADC0C18BF0B
:105FA00003325FEADC0C18BF033202EBDC02C2F101
:105FB000200300FA03FC20FA02F001FA03FE40EA93
:105FC0000E0021FA02F11444C1E600BF70B54FF093
:105FD000FF0C4CF4E06C1CEA11541DBF1CEA135575
:105FE00094EA0C0F95EA0C0F00F0DEF82C4481EADD
:105FF000030621EA4C5123EA4C5350EA013518BFFD
:1060000052EA033541F4801143F4801338D0A0FBE9
:1060100002CE4FF00005E1FB02E506F00042E0FB96
:1060200003E54FF00006E1FB03569CF0000F18BF9C
:106030004EF0010EA4F1FF04B6F5007F64F5407444
:1060400004D25FEA4E0E6D4146EB060642EAC621D7
:1060500041EA55514FEAC52040EA5E504FEACE2E44
:10606000B4F1FD0C88BFBCF5E06F1ED8BEF1004F47
:1060700008BF5FEA500E50F1000041EB045170BDC3
:1060800006F0004646EA010140EA020081EA030107
:10609000B4EB5C04C2BFD4EB0C0541EA045170BD03
:1060A00041F480114FF0000E013C00F3AB8014F17D
:1060B000360FDEBF002001F0004170BDC4F10004C6
:1060C000203C35DA0C341BDC04F11404C4F1200547
:1060D00000FA05F320FA04F001FA05F240EA0200A2
:1060E00001F0004221F0004110EBD37021FA04F6D8
:1060F00042EB06015EEA430E08BF20EAD37070BD92
:10610000C4F10C04C4F1200500FA04F320FA05F0F0
:1061100001FA04F240EA020001F0004110EBD370F2
:1061200041F100015EEA430E08BF20EAD37070BD62
:10613000C4F1200500FA05F24EEA020E20FA04F33B
:1061400001FA05F243EA020321FA04F001F00041EA
:1061500021FA04F220EA020000EBD3705EEA430E5B
:1061600008BF20EAD37070BD94F0000F0FD101F08A
:106170000046400041EB010111F4801F08BF013CC3
:10618000F7D041EA060195F0000F18BF704703F001
:106190000046520043EB030313F4801F08BF013D88
:1061A000F7D043EA0603704794EA0C0F0CEA135544
:1061B00018BF95EA0C0F0CD050EA410618BF52EAFE
:1061C0004306D1D181EA030101F000414FF0000004
:1061D00070BD50EA410606BF1046194652EA430612
:1061E00019D094EA0C0F02D150EA013613D195EA86
:1061F0000C0F05D152EA03361CBF104619460AD1CE
:1062000081EA030101F0004141F0FE4141F47001D7
:106210004FF0000070BD41F0FE4141F4780170BDC7
:1062200070B54FF0FF0C4CF4E06C1CEA11541DBF2C
:106230001CEA135594EA0C0F95EA0C0F00F0A7F82E
:10624000A4EB050481EA030E52EA03354FEA01315B
:1062500000F088804FEA03334FF0805545EA13136E
:1062600043EA12634FEA022245EA111545EA106536
:106270004FEA00260EF000419D4208BF964244F1CD
:10628000FD0404F5407402D25B084FEA3202B61AEC
:1062900065EB03055B084FEA32024FF480104FF4C0
:1062A000002CB6EB020E75EB030E22BFB61A754634
:1062B00040EA0C005B084FEA3202B6EB020E75EBC7
:1062C000030E22BFB61A754640EA5C005B084FEA2F
:1062D0003202B6EB020E75EB030E22BFB61A7546FC
:1062E00040EA9C005B084FEA3202B6EB020E75EB07
:1062F000030E22BFB61A754640EADC0055EA060EC8
:1063000018D04FEA051545EA16754FEA06164FEA0A
:10631000C30343EA52734FEAC2025FEA1C1CC0D1B6
:1063200011F4801F0BD141EA00014FF000004FF043
:10633000004CB6E711F4801F04BF01430020B4F104
:10634000FD0C88BFBCF5E06F3FF6AFAEB5EB030CBC
:1063500004BFB6EB020C5FEA500C50F1000041EBB9
:10636000045170BD0EF0004E4EEA113114EB5C0486
:10637000C2BFD4EB0C0541EA045170BD41F4801159
:106380004FF0000E013C90E645EA060E8DE60CEA61
:10639000135594EA0C0F08BF95EA0C0F3FF43BAF7E
:1063A00094EA0C0F0AD150EA01347FF434AF95EA35
:1063B0000C0F7FF425AF104619462CE795EA0C0F19
:1063C00006D152EA03353FF4FDAE1046194622E7E6
:1063D00050EA410618BF52EA43067FF4C5AE50EAC0
:1063E00041047FF40DAF52EA43057FF4EBAE12E7B0
:1063F0004FF0FF3C06E000BF4FF0010C02E000BF91
:106400004FF0010C4DF804CD4FEA410C7FEA6C5C73
:106410004FEA430C18BF7FEA6C5C1BD001B050EA16
:10642000410C0CBF52EA430C91EA030F02BF90EA01
:10643000020F0020704710F1000F91EA030F58BFC0
:10644000994208BF90422CBFD8176FEAE37040F022
:10645000010070474FEA410C7FEA6C5C02D150EAC0
:10646000013C07D14FEA430C7FEA6C5CD6D152EA7B
:10647000033CD3D05DF8040B704700BF8446104640
:1064800062468C461946634600E000BF01B5FFF73F
:10649000B7FF002848BF10F1000F01BD4DF808ED0F
:1064A000FFF7F4FF0CBF012000205DF808FB00BFE0
:1064B0004DF808EDFFF7EAFF34BF012000205DF83A
:1064C00008FB00BF4DF808EDFFF7E0FF94BF012087
:1064D00000205DF808FB00BF4DF808EDFFF7CEFF88
:1064E00094BF012000205DF808FB00BF4DF808EDC7
:1064F000FFF7C4FF34BF012000205DF808FB00BF98
:106500004FEA410C7FEA6C5C02D150EA013C0AD1AF
:106510004FEA430C7FEA6C5C02D152EA033C02D1A1
:106520004FF0000070474FF0010070474FEA410202
:1065300012F5001215D211D56FF47873B3EB6252D5
:1065400012D94FEAC12343F0004343EA505311F0FC
:10655000004F23FA02F018BF404270474FF000008E
:10656000704750EA013005D111F0004008BF6FF0CC
:10657000004070474FF00000704700BF4A0011D242
:1065800012F5001211D20DD56FF47873B3EB62528D
:106590000ED44FEAC12343F0004343EA505323FA99
:1065A00002F070474FF00000704750EA013002D10E
:1065B0004FF0FF3070474FF0000070474FEA410244
:1065C000B2F1E04324BFB3F5001CDCF1FE5C0DD951
:1065D00001F0004C4FEAC0024CEA5070B2F1004F9B
:1065E00040EB830008BF20F00100704711F0804F9E
:1065F00021D113F13872BCBF01F00040704741F463
:1066000080114FEA5252C2F11802C2F1200C10FA66
:106610000CF320FA02F018BF40F001004FEAC1234A
:106620004FEAD32303FA0CFC40EA0C0023FA02F3EE
:106630004FEA4303CCE77FEA625307D150EA0133C4
:106640001EBF4FF0FE4040F44000704701F0004094
:1066500040F0FE4040F40000704700BF10B5054C0C
:1066600013462CB10A4601460220AFF3008010BD4C
:10667000204610BD0000000010B5431E0A449142A0
:1066800004D011F8014B03F8014FF8E710BD0244A4
:106690000346934202D003F8011BFAE7704700005B
:1066A00038B5124B1C68A36B0546D3B91820FEF70A
:1066B00087FA43F20E33A06303804AF6CD3343805A
:1066C00041F2342383804EF26D63C3804DF6EC6358
:1066D0000381052343810B23838101220023C0E929
:1066E0000423A36B00221D615A6138BDB4E303206B
:1066F000034613F8012B002AFBD1181A0138704702
:1067000021400D005D400D0089400D008D400D00C1
:1067100000000000636865636B73756D546F74618E
:106720006C3A3A200061756357726974654461740C
:10673000614275665B375D3A3A2000617563577256
:10674000697465446174614275665B25695D3A3AB6
:106750002000557062656174204C61627320447240
:106760002E2057617474736F6E20456E6572677961
:106770002044617461204578616D706C6520536BB5
:1067800065746368002A2A2A2A2A2A2A2A2A2A2A97
:106790002A2A2A2A2A2A2A2A2A2A2A2A2A2A2A2A59
:1067A0002A2A2A2A2A2A2A2A2A2A2A2A2A2A2A2A49
:1067B0002A2A2A2A2A2A2A0073797374656D20539B
:1067C0007461747573203D200073797374656D2056
:1067D00056657273696F6E203D2000437572726555
:1067E0006E74203D20004C696E652046726571759F
:1067F000656E6379203D2000416E616C6F672049B2
:106800006E70757420566F6C74616765203D200052
:10681000506F77657220466163746F72203D20006F
:1068200041637469766520506F776572203D200062
:10683000526561637469766520506F776572203D9B
:1068400020004170706172656E7420506F776572C0
:10685000203D20004572726F722072657475726EF1
:10686000656421200000000000000000000000001E
:10687000794C0D006F4C0D00654C0D005B4C0D000C
:106880004F4C0D00434C0D00374C0D002F4C0D00AC
:10689000254C0D001B4C0D0069500D000000000040
:1068A00000000000994C0D00E34C0D00BB4C0D00A6
:1068B0009B4C0D00C34C0D00CB4C0D00D34C0D0078
:1068C000DB4C0D000000000000000000B94D0D0081
:1068D000A94D0D00AB4D0D006261756400536572EA
:1068E00069616C0053657269616C3100747970651F
:1068F00000706172616D00636D6400696400686EB0
:1069000064007374726D0066696C74006C766C0060
:1069100061646448616E646C65720072656D6F7667
:106920006548616E646C657200656E756D48616E78
:10693000646C657273004A534F4E53747265616D97
:106940004C6F6748616E646C657200617070002501
:106950003031307520005D20002564002C20002897
:10696000293A2000205B00636F6465203D200025EC
:10697000690064657461696C73203D20000D0A0034
:106980006C6E00666E00636F6465006465746169B7
:106990006C006E6F6E6500747261636500696E668F
:1069A0006F007761726E006572726F720070616E57
:1069B000696300616C6C00000000000000000000D2
:1069C000FB4E0D00F14E0D00E74E0D00DD4E0D00AB
:1069D000D14E0D00C54E0D00B94E0D00B14E0D004B
:1069E000A74E0D009D4E0D0069500D0000000000E7
:1069F0000000000001500D000B500D0015500D005F
:106A00001F500D0029500D0035500D0041500D0054
:106A10004D500D0055500D005F500D0069500D0098
:106A20006E616E006F7666002E00696E6600000073
:106A30000000000000000000CD540D00CF540D00F8
:106A40005A00252B3033643A253032750025592DF4
:106A5000256D2D25645425483A254D3A2553257A30
:106A60000061736374696D65000000000000000040
:106A70000000000039550D0089550D0097550D0097
:106A800049510D004D550D006F550D005B550D0022
:106A900083550D003B550D003F550D0000000000D3
:106AA0000000000041560D0091560D009F560D004C
:106AB00049510D007D560D0043560D0059560D00ED
:106AC0008B560D006F560D003D560D000000000066
:106AD00000000000AB570D00A1570D0097570D00A7
:106AE0004D570D008B570D007F570D0073570D004C
:106AF0006B570D0061570D0057570D0069500D0081
:106B00000000000000000000000000000000000085
:106B10000000000000000000000000000000000075
:106B20000000000000000000000000000000000065
:106B30000000000000000000000000000000000055
:106B40000000000000000000000000000000000045
:106B50000000000000000000000000000000000035
:106B60004300000085450D00F5470D00F94B0D0071
:106B7000854C0D008D4E0D00B14F0D0035510D00AF
:106B8000B1540D000D550D0025550D00B5570D00E4
:106B900079590D00CD590D00915A0D00155B0D006E
:106BA000995B0D00000000000000000000000000E4
:106BB0000D00000001000000616A0D0000000000EF
:106BC000006B0D00206B0D00406B0D0000000000FD
:106BD000000000000000000000000000606B0D00DD
:106BE00000000000000000000000000000000000A5
:106BF0000000000000000000000000000000000095
:106C00000000000000000000000000000000000084
:106C100000000000000000000000000054E303201A
:106C2000FFFFFFFF00000102030405060708090A31
:106C30000B0C0D0E0F101112131415161718191A2C
:086C40001B1C1D1E1F20280073
:046C48007856341234
:04000003D0004020C9
:00000001FF
