:02000004080AE8
:1000000000000A0874140A08000006000600050132
:080010000402E80500000000F5
:0400180020110A08A1
:10001C0009480A4908B5884205D0094A824202D0EB
:10002C00121A01F033F80748074A0021121A01F09E
:10003C0038F8064808BD00BF00000020E4130A0889
:10004C006800002068000020EC050020EC05002072
:10005C0070B500F0AFFD074B074C1E46E41AA40820
:10006C000025A54204D056F8253098470135F8E70D
:10007C0070BD00BFB0130A08E0130A0800F011B8F5
:10008C0008B500F012F8BDE8084000F055BD00F0CE
:10009C00A7B90078B0FA80F04009704701230370CB
:1000AC0070470121072000F0F7BD08B5012107209A
:1000BC0000F003FE4FF47A7000F09AF9072000214B
:1000CC0000F0FBFDBDE808404FF47A7000F090B9E9
:1000DC0000F020B808B5024B1B685B6C019308BD9F
:1000EC00D001060808B5024B1B689B6C019308BD38
:1000FC00D001060808B5024B1B685B68019308BD6C
:10010C009C01060808B5024B1B685B69019308BD8E
:10011C009C01060808B5024B1B681B68019308BDBF
:10012C00B001060808B5024B1B689B68019308BD1B
:10013C00B001060808B5024B1B68DB68019308BDCB
:10014C00B001060808B5024B1B681B69019308BD7A
:10015C00B001060808B5024B1B681B6E019308BD65
:10016C00AC01060808B5024B1B685B6E019308BD19
:10017C00AC01060808B5024B1B689B6E019308BDC9
:10018C00AC01060808B5024B1B68DB6E019308BD79
:10019C00AC01060808B5024B1B681B6F019308BD28
:1001AC00AC01060808B5024B1B685B6F019308BDD8
:1001BC00AC01060808B5034B1B68D3F880300193DB
:1001CC0008BD0000AC01060808B5024B1B68DB69D2
:1001DC00019308BDB401060808B5024B1B681B6AE5
:1001EC00019308BDB401060808B5024B1B689B6956
:1001FC00019308BDC401060808B5024B1B685B6A75
:10020C00019308BDC401060808B5024B1B689B6A24
:10021C00019308BDC401060808B5024B1B68DB6AD4
:10022C00019308BDC401060808B5024B1B681B6B83
:10023C00019308BDC401060808B5024B1B685B6B33
:10024C00019308BDC401060808B5024B1B689B6BE3
:10025C00019308BDC401060808B5024B1B681B6C52
:10026C00019308BDC401060808B5024B1B681B6846
:10027C00019308BDD801060808B5024B1B681B6921
:10028C00019308BDD801060808B5024B1B685B69D1
:10029C00019308BDD801060808B5024B1B689B6981
:1002AC00019308BDD801060808B5024B1B68DB6931
:1002BC00019308BDD801060808B5024B1B681B6AE0
:1002CC00019308BDD801060808B5024B1B689B6C4E
:1002DC00019308BDC001060808B5024B1B685B689A
:1002EC00019308BDA401060808B5024B1B685B69A5
:1002FC00019308BDA401060808B5034B1B68D3F88D
:10030C009030019308BD0000A401060808B5034B0A
:10031C001B68D3F89C30019308BD0000A4010608AB
:10032C0008B5024B1B68DB6B019308BDCC010608BA
:10033C0008B5024B1B685B68019308BDC801060831
:10034C0008B5024B1B689B68019308BDC8010608E1
:10035C0008B5024B1B68DB68019308BDC801060891
:10036C0008B5024B1B681B69019308BDC801060840
:10037C0008B5024B1B685B69019308BDC8010608F0
:10038C0008B5024B1B689B69019308BDC8010608A0
:10039C0008B5024B1B68DB69019308BDC801060850
:1003AC0008B5024B1B681B6A019308BDC8010608FF
:1003BC0008B5024B1B681B6B019308BDC8010608EE
:1003CC0008B5024B1B685B6B019308BDC80106089E
:1003DC0008B5024B1B681B68019308BDA0010608F9
:1003EC0008B5024B1B685B68019308BDA0010608A9
:1003FC000021FFF779BF10B58368044613B10322BF
:10040C0001469847204610BD7047F8B5064615467C
:10041C000C468F18BC4206D0336814F8011B9B683D
:10042C0030469847F6E72846F8BD0022007CFFF7D7
:10043C0091BE0021007CFFF795BE0021007CFFF7E8
:10044C0099BE0021007CFFF79DBE0021007CFFF7C8
:10045C00A1BE10B50446142100F0A5FC204610BD29
:10046C0010B50446002363604FF47A73A360044B09
:10047C002174084623601146FFF79CFE204610BDF0
:10048C003C110A080021007CFFF78CBE704710B5A8
:10049C000446182100F087FC204610BDF8B50F4625
:1004AC0000F10806051D002416F8011D0A22384625
:1004BC0000F0E7F8AE42044407D0002CF4D02E2113
:1004CC00384600F0DBF80444EEE72046F8BD0000A7
:1004DC0010B50446044B112240F8043B002100F0F7
:1004EC00E0FD204610BD00BF64110A080346074A10
:1004FC0010B543F8042B01F1100251F8044B914252
:10050C0043F8044BF9D10A781A7010BD64110A082B
:10051C00024A4160026004220275704764110A08A5
:10052C0010B59DF8084044EA032343EA024242EA2C
:10053C00016104234160037510BD000037B5044D03
:10054C0005609DF818500095FFF7EAFF03B030BD29
:10055C0064110A08014A024B1A607047E6110A0836
:10056C006C00002000231A464068FFF7E1BE002211
:10057C0002214068FFF7ECBE002211464068FFF7ED
:10058C00DFBE002211464068FFF7EABE00231A4680
:10059C0019464068FFF7ECBE00231A46194640681E
:1005AC00FFF7EEBE002281F001014068FFF7F0BEBC
:1005BC0000224068FFF7FCBE002211464068FFF79E
:1005CC00FFBE002211464068FFF7EABE70B5164622
:1005DC008EB0044608A8FFF77BFF1122002103A868
:1005EC0000F05FFD304600F08DFD00250A4B0095B4
:1005FC0081B25B6803AA3046FFF766FE20B129463C
:10060C002046FFF785FF03E003A92046FFF76EFFA6
:10061C0020460EB070BD00BFF4040020024B034A0C
:10062C001A6000225A607047700000205C120A08A1
:10063C00F8B506460D468F180024BD420CD0336821
:10064C0015F8011B9B6830469847002801DB0444D1
:10065C00F3E7002C08BF04462046F8BD70B50546EC
:10066C000C46084649B100F04DFD2B680246214668
:10067C002846BDE87040DB68184770BD03689B686E
:10068C001847012A98BF0A2230B50B468BB00021BF
:10069C008DF824100DF12304B3FBF2F505FB123396
:1006AC00DBB2092B94BF30333733DBB2214604F86D
:1006BC0001392B46002DEFD1FFF7D0FF0BB030BD29
:1006CC0010B50446FFF797FE204610BD03480023E3
:1006DC008360034A034900F061BB00BF780000202F
:1006EC0068000020CD060A0870B504460E460025A9
:1006FC0040F8085FFFF7EEFC30462670FFF764FD0C
:10070C006560204670BD0078FFF766BD10B50446E5
:10071C00006818B1FFF764FE0023236010BD10B50C
:10072C000446FFF7F3FF204610BD00004FF6FF73A1
:10073C0010B5084C00202060A080A071208163813E
:10074C00FFF7CAFD2046BDE81040034A034900F0FC
:10075C0025BB00BF88000020680000202B070A087A
:10076C00024B1A68024B1A60704700BF0000002051
:10077C009400002070474174704708B5007CFFF767
:10078C006BFD20EAE07008BD08B5007CFFF73CFD6E
:10079C0020EAE07008BD08B5007CFFF745FD30EAA3
:1007AC00200028BF4FF0FF3008BD08B5007CFFF7D4
:1007BC0033FD30EA200028BF4FF0FF3008BD007C2D
:1007CC00FFF73ABD10B50446142100F0ECFA2046B0
:1007DC0010BD70B5457C04460E4625B9007CFFF76C
:1007EC003BFD002805DD3146207CBDE87040FFF75D
:1007FC0003BD284670BD000010B5044608461146DE
:10080C00002262604FF47A72A260054A2074226062
:10081C00012262741A46FFF7E7FC204610BD00BFA8
:10082C00BC120A08007CFFF70FBD000038B50C4D58
:10083C00296811F0010411D12846FFF72AFC68B190
:10084C00084A2146084B0948FFF7D6FF2846FFF710
:10085C0025FC074A0749054800F0A0FA034838BDB3
:10086C003001002034010020AC0000209800002052
:10087C006800002081070A0841747047704708B56A
:10088C000021007CFFF708FD30EA200028BF4FF064
:10089C00FF3008BD08B50121007CFFF7FDFC30EAF4
:1008AC00200028BF4FF0FF3008BD08B5007CFFF7D3
:1008BC00EBFC20EAE07008BD08B5007CFFF7DCFC1F
:1008CC0020EAE07008BD007CFFF7F6BC10B50446CA
:1008DC00142100F068FA204610BD38B50446007C9F
:1008EC000D46FFF7D1FC002801DC607C28B12946BD
:1008FC00207CFFF7D9FC20EAE07038BD10B5044627
:10090C00002363604FF47A73A360054B08462360A1
:10091C000123217463741146FFF7A6FC204610BD19
:10092C00EC120A0810B504461422002100F0B9FBA1
:10093C00054B20466360054BE36040F201132381B5
:10094C008123238210BD00BF3D020020BC0100208A
:10095C0030B50E4D87B001A8FFF7E4FF296811F000
:10096C00010410D12846FFF794FB60B101AA21467F
:10097C000748FFF7C3FF2846FFF790FB054A0649D7
:10098C00034800F00BFA024807B030BDB801002054
:10099C00400300206800002089080A0810B50446AE
:1009AC001422002100F07DFB054B20466360054BB3
:1009BC00E36040F2011323818123238210BD00BF29
:1009CC00F00300205803002010B50E4C86B001A88F
:1009DC00FFF7E4FF2368DB0710D42046FFF759FB31
:1009EC0060B101AA01210848FFF788FF2046FFF7F4
:1009FC0055FB064A0649044800F0D0F9024806B0F7
:100A0C0010BD00BF54030020DC0300206800002050
:100A1C0089080A08002211464068FFF7A1BCF0B50E
:100A2C00164689B011220F460446002103A800F097
:100A3C0038FB304600F066FB0025009581B27B68E0
:100A4C0003AA3046FFF740FC20B129462046FFF7A9
:100A5C005FFD03E003A92046FFF748FD204609B0DF
:100A6C00F0BD002211464068FFF79ABC00221146E7
:100A7C004068FFF7A5BC00224068FFF799BC002234
:100A8C0081F001014068FFF783BC00231A46194628
:100A9C004068FFF775BC00231A4619464068FFF7FB
:100AAC0067BC002211464068FFF74ABC00220221B5
:100ABC004068FFF74DBC00231A464068FFF738BC6E
:100ACC00024B04225A60024A1A607047F404002058
:100ADC001C130A0808B5144B33B1FFF739FF036830
:100AEC001B699847002816DC104B33B1FFF79EFEAC
:100AFC0003681B699847002810DC0D4B0BB1AFF352
:100B0C0000800C4B7BB1FFF75FFF03681B699847B4
:100B1C00002806DC08BDAFF30080E5E7AFF30080EA
:100B2C00EBE7AFF3008008BD000000000000000000
:100B3C00000000000000000008B5FFF7CBFFFFF736
:100B4C00E1FA014B186008BD140500200248034A65
:100B5C000349121A00F09ABA0040024004400240C5
:100B6C00E0130A0807B5002300931A466FF07701CB
:100B7C00FFF7CCFB03B05DF804FB000007B543881E
:100B8C000A2B08D0502B09D1094B1B683BB103B081
:100B9C005DF804EB1847FFF7E5FF06E00023009330
:100BAC001A466FF07701FFF7B1FB03B05DF804FB59
:100BBC00FC04002038B5104C104D2368AB42104B90
:100BCC000CBF012200221A7002D0FFF7BFFF256074
:100BDC00FFF790FA044600F06DFA0A4B13B1204669
:100BEC00AFF3008000210748FFF79AFBBDE83840BF
:100BFC0000210548FFF780BB004002401E1C279ACD
:100C0C000005002000000000890B0A0810B50446FE
:100C1C00806808B1FFF766FA204610BD70B51A4E11
:100C2C000446316811F001050FD13046FFF731FA57
:100C3C0058B129461548FFF757FD3046FFF72EFAF5
:100C4C00134A1449114800F0A9F81048FFF75BFD4E
:100C5C0028B1A4F10D03022B01D8002070BD00F0C7
:100C6C005FF8FFF70FFC08B1012CF6D9FFF7DEFD9A
:100C7C00FFF7D8FD18B1A4F11203012BEDD9172CF5
:100C8C008CBF0020012070BD040500200805002049
:100C9C0068000020190C0A08172838B504460D46C0
:100CAC000AD8FF2908D0FFF7B9FF28B129462046FA
:100CBC00BDE83840FFF736BA38BD38B504460D46A6
:100CCC00FFF738FAFF2810D0062804D84D2323FA52
:100CDC0000F0C30709D42046FFF7A0FF28B129462E
:100CEC002046BDE83840FFF72DBA38BD70B5044634
:100CFC0014252A46094E002100F0D3F92580202521
:100D0C003146A5602561284600F067F831466060E1
:100D1C00284600F062F8E060204670BD48130A08CF
:100D2C0030B50E4D87B0296811F0010413D1284657
:100D3C00FFF7AFF978B101A8FFF7D8FF01AA214658
:100D4C000748FFF78DFB2846FFF7A8F9054A064927
:100D5C00034800F023F8024807B030BD1805002006
:100D6C001C0500206800002015040A0813B5084C67
:100D7C0000231A46194600932046FFF7DFFB204656
:100D8C00044A054902B0BDE8104000F007B800BFA6
:100D9C00300500206800002099040A080B46014623
:100DAC00184600F065B9FFF772B90000024B1868DD
:100DBC00BFF35F8F704700BF4805002010B50028B7
:100DCC0014BF044601242046FFF702FB20B9FFF7AD
:100DDC00EDFF08B18047F6E710BDFFF7EFBF00004D
:100DEC00244B1A68D0075CBF01221A60224B1A6888
:100DFC00D1075CBF01221A60204B1A68D2075CBF76
:100E0C0001221A601E4B1A68D0075CBF01221A60BF
:100E1C001C4B1A68D1075CBF01221A601A4B1A6866
:100E2C00D2075CBF01221A60184B1A68D0075CBF4E
:100E3C0001221A60164B1A68D1075CBF01221A6096
:100E4C00144B1A68D2075CBF01221A60124B1A6845
:100E5C00D0075CBF01221A60104B1A68D1075CBF27
:100E6C0001221A600E4B1A68D2075CBF01221A606D
:100E7C00704700BF78050020740500207005002025
:100E8C006C0500206805002064050020600500202A
:100E9C005C0500205805002054050020500500205A
:100EAC004C050020184B1A68D1075CBF01221A6050
:100EBC00164B1A68D2075CBF01221A60144B1A68D1
:100ECC00D0075CBF01221A60124B1A68D1075CBFB5
:100EDC0001221A60104B1A68D2075CBF01221A60FB
:100EEC000E4B1A68D0075CBF01221A600C4B1A68B3
:100EFC00D1075CBF01221A600A4B1A68D2075CBF8B
:100F0C0001221A60704700BF98050020940500204C
:100F1C00900500208C050020880500208405002009
:100F2C00800500207C050020184B1A68D1075CBF97
:100F3C0001221A60164B1A68D2075CBF01221A6094
:100F4C00144B1A68D0075CBF01221A60124B1A6846
:100F5C00D1075CBF01221A60104B1A68D2075CBF24
:100F6C0001221A600E4B1A68D0075CBF01221A606E
:100F7C000C4B1A68D1075CBF01221A600A4B1A6825
:100F8C00D2075CBF01221A60704700BFB805002071
:100F9C00B4050020B0050020AC050020A8050020F9
:100FAC00A4050020A00500209C050020244B1A68F5
:100FBC00D0075CBF01221A60224B1A68D1075CBFB4
:100FCC0001221A60204B1A68D2075CBF01221A60FA
:100FDC001E4B1A68D0075CBF01221A601C4B1A68A2
:100FEC00D1075CBF01221A601A4B1A68D2075CBF8A
:100FFC0001221A60184B1A68D0075CBF01221A60D4
:10100C00164B1A68D1075CBF01221A60144B1A6880
:10101C00D2075CBF01221A60124B1A68D0075CBF62
:10102C0001221A60104B1A68D1075CBF01221A60AA
:10103C000E4B1A68D2075CBF01221A60704700BFC2
:10104C00E8050020E4050020E0050020DC05002078
:10105C00D8050020D4050020D0050020CC050020A8
:10106C00C8050020C4050020C0050020BC050020D8
:10107C0010B5054C13462CB10A4601460220AFF3BD
:10108C00008010BD204610BD0000000010B5431EAE
:10109C000A44914204D011F8014B03F8014FF8E7D0
:1010AC0010BD03460244934202D003F8011BFAE739
:1010BC007047000038B5124B05461C68A36BD3B9BA
:1010CC001820FFF785F943F20E33A06303804AF62C
:1010DC00CD33438041F2342383804EF26D63C38061
:1010EC004DF6EC630381052343810B23838101229D
:1010FC000023C0E90423A36B00221D615A6138BD93
:10110C0064000020034613F8012B002AFBD1181AA7
:10111C00013870471D000A085D000A0889000A089A
:10112C008D000A0800000000000000000000000014
:10113C0015040A085F040A0837040A0817040A0889
:10114C003F040A0847040A084F040A0857040A080F
:10115C000000000000000000A9040A0899040A0815
:10116C009B040A08626175640053657269616C00C6
:10117C0055534253657269616C3100747970650026
:10118C00706172616D00636D6400696400686E6407
:10119C00007374726D0066696C74006C766C00611F
:1011AC00646448616E646C65720072656D6F76651F
:1011BC0048616E646C657200656E756D48616E6435
:1011CC006C657273004A534F4E53747265616D4C6B
:1011DC006F6748616E646C657200617070002530D9
:1011EC0031307520005D20002564002C200028295A
:1011FC003A2000205B00636F6465203D2000256968
:10120C000064657461696C73203D20000D0A0066F2
:10121C00006C6E00666E00636F64650064657461DB
:10122C00696C006E6F6E6500747261636500696E47
:10123C00666F007761726E006572726F720070611A
:10124C006E696300616C6C0000000000000000001F
:10125C0071050A087B050A0885050A088F050A0826
:10126C0099050A08A5050A08B1050A08BD050A086A
:10127C00C5050A08CF050A08D9050A085A00252B06
:10128C003033643A253032750025592D256D2D25C6
:10129C00645425483A254D3A2553257A00617363E9
:1012AC0074696D6500000000000000000000000083
:1012BC0081070A08D1070A08DF070A083D060A0851
:1012CC0095070A08B7070A08A3070A08CB070A08F4
:1012DC0083070A0887070A080000000000000000C6
:1012EC0089080A08D9080A08E7080A083D060A0806
:1012FC00C5080A088B080A08A1080A08D3080A08B6
:10130C00B7080A0885080A08000000000000000061
:10131C00C30A0A08B90A0A08AF0A0A08210A0A0805
:10132C00A30A0A08970A0A088B0A0A08830A0A08F9
:10133C00790A0A086F0A0A082B0A0A08000000003A
:10134C000000000000000000000000000000000091
:10135C000000000000000000000000000000000081
:10136C000000000000000000000000000000000071
:10137C000000000000000000000000000000000061
:10138C000000000000000000000000000000000051
:10139C000000000000000000000000000000000041
:1013AC0043000000DD000A0861050A0829060A0846
:1013BC00D9060A0839070A086D070A08CD0A0A086F
:1013CC00790D0A08ED0D0A08B10E0A08350F0A0846
:0413DC00B90F0A0833
:0413E0000000000009
:1013E400A9120A08000000004C130A086C130A082A
:1013F4008C130A0800000000000000000000000038
:1014040000000000AC130A08000000000000000007
:1014140000000000000000000000000000000000C8
:1014240000000000000000000000000000000000B8
:1014340000000000000000000000000000000000A8
:0814440000000000040000207C
:10144C00FFFFFFFF00000102030405060708090A5D
:10145C000B0C0D0E0F101112131415161718191A58
:08146C001B1C1D1E1F2028009F
:041474007856341260
:04000005080A001CC9
:00000001FF
